{
  "_format": "hh-sol-artifact-1",
  "contractName": "DomainLending",
  "sourceName": "contracts/DomainLending.sol",
  "abi": [
    {
      "inputs": [
        {
          "internalType": "address",
          "name": "_stablecoin",
          "type": "address"
        }
      ],
      "stateMutability": "nonpayable",
      "type": "constructor"
    },
    {
      "inputs": [
        {
          "internalType": "address",
          "name": "owner",
          "type": "address"
        }
      ],
      "name": "OwnableInvalidOwner",
      "type": "error"
    },
    {
      "inputs": [
        {
          "internalType": "address",
          "name": "account",
          "type": "address"
        }
      ],
      "name": "OwnableUnauthorizedAccount",
      "type": "error"
    },
    {
      "inputs": [],
      "name": "ReentrancyGuardReentrantCall",
      "type": "error"
    },
    {
      "anonymous": false,
      "inputs": [
        {
          "indexed": true,
          "internalType": "uint256",
          "name": "loanId",
          "type": "uint256"
        },
        {
          "indexed": true,
          "internalType": "address",
          "name": "lender",
          "type": "address"
        }
      ],
      "name": "CollateralClaimed",
      "type": "event"
    },
    {
      "anonymous": false,
      "inputs": [
        {
          "indexed": true,
          "internalType": "uint256",
          "name": "loanId",
          "type": "uint256"
        },
        {
          "indexed": true,
          "internalType": "address",
          "name": "borrower",
          "type": "address"
        },
        {
          "indexed": false,
          "internalType": "address",
          "name": "domainNFT",
          "type": "address"
        },
        {
          "indexed": false,
          "internalType": "uint256",
          "name": "tokenId",
          "type": "uint256"
        },
        {
          "indexed": false,
          "internalType": "uint256",
          "name": "loanAmount",
          "type": "uint256"
        },
        {
          "indexed": false,
          "internalType": "uint256",
          "name": "interestRate",
          "type": "uint256"
        },
        {
          "indexed": false,
          "internalType": "uint256",
          "name": "duration",
          "type": "uint256"
        }
      ],
      "name": "LoanCreated",
      "type": "event"
    },
    {
      "anonymous": false,
      "inputs": [
        {
          "indexed": true,
          "internalType": "uint256",
          "name": "loanId",
          "type": "uint256"
        },
        {
          "indexed": true,
          "internalType": "address",
          "name": "liquidator",
          "type": "address"
        }
      ],
      "name": "LoanLiquidated",
      "type": "event"
    },
    {
      "anonymous": false,
      "inputs": [
        {
          "indexed": true,
          "internalType": "uint256",
          "name": "loanId",
          "type": "uint256"
        },
        {
          "indexed": true,
          "internalType": "address",
          "name": "borrower",
          "type": "address"
        },
        {
          "indexed": false,
          "internalType": "uint256",
          "name": "repaymentAmount",
          "type": "uint256"
        }
      ],
      "name": "LoanRepaid",
      "type": "event"
    },
    {
      "anonymous": false,
      "inputs": [
        {
          "indexed": true,
          "internalType": "address",
          "name": "previousOwner",
          "type": "address"
        },
        {
          "indexed": true,
          "internalType": "address",
          "name": "newOwner",
          "type": "address"
        }
      ],
      "name": "OwnershipTransferred",
      "type": "event"
    },
    {
      "inputs": [],
      "name": "BASIS_POINTS",
      "outputs": [
        {
          "internalType": "uint256",
          "name": "",
          "type": "uint256"
        }
      ],
      "stateMutability": "view",
      "type": "function"
    },
    {
      "inputs": [],
      "name": "LIQUIDATION_THRESHOLD",
      "outputs": [
        {
          "internalType": "uint256",
          "name": "",
          "type": "uint256"
        }
      ],
      "stateMutability": "view",
      "type": "function"
    },
    {
      "inputs": [
        {
          "internalType": "address",
          "name": "",
          "type": "address"
        },
        {
          "internalType": "uint256",
          "name": "",
          "type": "uint256"
        }
      ],
      "name": "borrowerLoans",
      "outputs": [
        {
          "internalType": "uint256",
          "name": "",
          "type": "uint256"
        }
      ],
      "stateMutability": "view",
      "type": "function"
    },
    {
      "inputs": [
        {
          "internalType": "uint256",
          "name": "loanId",
          "type": "uint256"
        }
      ],
      "name": "calculateRepaymentAmount",
      "outputs": [
        {
          "internalType": "uint256",
          "name": "",
          "type": "uint256"
        }
      ],
      "stateMutability": "view",
      "type": "function"
    },
    {
      "inputs": [
        {
          "internalType": "address",
          "name": "domainNFT",
          "type": "address"
        },
        {
          "internalType": "uint256",
          "name": "tokenId",
          "type": "uint256"
        },
        {
          "internalType": "uint256",
          "name": "loanAmount",
          "type": "uint256"
        },
        {
          "internalType": "uint256",
          "name": "interestRate",
          "type": "uint256"
        },
        {
          "internalType": "uint256",
          "name": "duration",
          "type": "uint256"
        },
        {
          "internalType": "uint256",
          "name": "collateralValue",
          "type": "uint256"
        }
      ],
      "name": "createLoan",
      "outputs": [
        {
          "internalType": "uint256",
          "name": "",
          "type": "uint256"
        }
      ],
      "stateMutability": "nonpayable",
      "type": "function"
    },
    {
      "inputs": [
        {
          "internalType": "address",
          "name": "borrower",
          "type": "address"
        }
      ],
      "name": "getBorrowerLoans",
      "outputs": [
        {
          "internalType": "uint256[]",
          "name": "",
          "type": "uint256[]"
        }
      ],
      "stateMutability": "view",
      "type": "function"
    },
    {
      "inputs": [
        {
          "internalType": "uint256",
          "name": "loanId",
          "type": "uint256"
        }
      ],
      "name": "liquidateLoan",
      "outputs": [],
      "stateMutability": "nonpayable",
      "type": "function"
    },
    {
      "inputs": [],
      "name": "loanCounter",
      "outputs": [
        {
          "internalType": "uint256",
          "name": "",
          "type": "uint256"
        }
      ],
      "stateMutability": "view",
      "type": "function"
    },
    {
      "inputs": [
        {
          "internalType": "uint256",
          "name": "",
          "type": "uint256"
        }
      ],
      "name": "loans",
      "outputs": [
        {
          "internalType": "address",
          "name": "borrower",
          "type": "address"
        },
        {
          "internalType": "address",
          "name": "domainNFT",
          "type": "address"
        },
        {
          "internalType": "uint256",
          "name": "tokenId",
          "type": "uint256"
        },
        {
          "internalType": "uint256",
          "name": "loanAmount",
          "type": "uint256"
        },
        {
          "internalType": "uint256",
          "name": "interestRate",
          "type": "uint256"
        },
        {
          "internalType": "uint256",
          "name": "startTime",
          "type": "uint256"
        },
        {
          "internalType": "uint256",
          "name": "duration",
          "type": "uint256"
        },
        {
          "internalType": "bool",
          "name": "active",
          "type": "bool"
        },
        {
          "internalType": "uint256",
          "name": "collateralValue",
          "type": "uint256"
        }
      ],
      "stateMutability": "view",
      "type": "function"
    },
    {
      "inputs": [
        {
          "internalType": "address",
          "name": "",
          "type": "address"
        },
        {
          "internalType": "address",
          "name": "",
          "type": "address"
        },
        {
          "internalType": "uint256",
          "name": "",
          "type": "uint256"
        },
        {
          "internalType": "bytes",
          "name": "",
          "type": "bytes"
        }
      ],
      "name": "onERC721Received",
      "outputs": [
        {
          "internalType": "bytes4",
          "name": "",
          "type": "bytes4"
        }
      ],
      "stateMutability": "pure",
      "type": "function"
    },
    {
      "inputs": [],
      "name": "owner",
      "outputs": [
        {
          "internalType": "address",
          "name": "",
          "type": "address"
        }
      ],
      "stateMutability": "view",
      "type": "function"
    },
    {
      "inputs": [],
      "name": "renounceOwnership",
      "outputs": [],
      "stateMutability": "nonpayable",
      "type": "function"
    },
    {
      "inputs": [
        {
          "internalType": "uint256",
          "name": "loanId",
          "type": "uint256"
        }
      ],
      "name": "repayLoan",
      "outputs": [],
      "stateMutability": "nonpayable",
      "type": "function"
    },
    {
      "inputs": [],
      "name": "stablecoin",
      "outputs": [
        {
          "internalType": "contract IERC20",
          "name": "",
          "type": "address"
        }
      ],
      "stateMutability": "view",
      "type": "function"
    },
    {
      "inputs": [
        {
          "internalType": "address",
          "name": "newOwner",
          "type": "address"
        }
      ],
      "name": "transferOwnership",
      "outputs": [],
      "stateMutability": "nonpayable",
      "type": "function"
    },
    {
      "inputs": [
        {
          "internalType": "uint256",
          "name": "amount",
          "type": "uint256"
        }
      ],
      "name": "withdrawFunds",
      "outputs": [],
      "stateMutability": "nonpayable",
      "type": "function"
    }
  ],
  "bytecode": "0x60a060405234801561001057600080fd5b5060405161167038038061167083398101604081905261002f916100c7565b6001600055338061005a57604051631e4fbdf760e01b81526000600482015260240160405180910390fd5b61006381610075565b506001600160a01b03166080526100f7565b600180546001600160a01b038381166001600160a01b0319831681179093556040519116919082907f8be0079c531659141344cd1fd0a4f28419497f9722a3daafe3b4186f6b6457e090600090a35050565b6000602082840312156100d957600080fd5b81516001600160a01b03811681146100f057600080fd5b9392505050565b608051611549610127600039600081816102cb015281816107fc0152818161095b0152610b3601526115496000f3fe608060405234801561001057600080fd5b50600436106101005760003560e01c8063b119723911610097578063e3ed190211610066578063e3ed1902146102b3578063e9cbd822146102c6578063eee8b7ff146102ed578063f2fde38b1461030d57600080fd5b8063b1197239146101ca578063ccdd9f5d146101dd578063e1ec3c68146101f0578063e1f1c4a7146102aa57600080fd5b8063715018a6116100d3578063715018a6146101815780638da5cb5b1461018957806390a8ae9b146101ae578063ab7b1c89146101b757600080fd5b80631079f7af14610105578063150b7a021461012b578063155dd5ee1461016357806334d9289e14610178575b600080fd5b6101186101133660046112a8565b610320565b6040519081526020015b60405180910390f35b61014a6101393660046112f4565b630a85bd0160e11b95945050505050565b6040516001600160e01b03199091168152602001610122565b610176610171366004611393565b610951565b005b61011860025481565b610176610a4e565b6001546001600160a01b03165b6040516001600160a01b039091168152602001610122565b610118611f4081565b6101766101c5366004611393565b610a62565b6101186101d8366004611393565b610c39565b6101766101eb366004611393565b610d4a565b6102596101fe366004611393565b60036020819052600091825260409091208054600182015460028301549383015460048401546005850154600686015460078701546008909701546001600160a01b03968716989690951696939492939192909160ff169089565b604080516001600160a01b039a8b1681529990981660208a0152968801959095526060870193909352608086019190915260a085015260c0840152151560e083015261010082015261012001610122565b61011861271081565b6101186102c13660046113ac565b611112565b6101967f000000000000000000000000000000000000000000000000000000000000000081565b6103006102fb3660046113d8565b611143565b60405161012291906113fc565b61017661031b3660046113d8565b6111af565b600061032a6111ea565b6000851161037f5760405162461bcd60e51b815260206004820152601c60248201527f4c6f616e20616d6f756e74206d75737420626520706f7369746976650000000060448201526064015b60405180910390fd5b611f408261038f61271088611456565b6103999190611473565b11156103d65760405162461bcd60e51b815260206004820152600c60248201526b098a8ac40e8dede40d0d2ced60a31b6044820152606401610376565b62093a8083101580156103ed57506301e133808311155b61042c5760405162461bcd60e51b815260206004820152601060248201526f24b73b30b634b210323ab930ba34b7b760811b6044820152606401610376565b60405163020604bf60e21b8152600481018790526000906001600160a01b0389169063081812fc90602401602060405180830381865afa158015610474573d6000803e3d6000fd5b505050506040513d601f19601f820116820180604052508101906104989190611495565b60405163e985e9c560e01b81523360048201523060248201529091506000906001600160a01b038a169063e985e9c590604401602060405180830381865afa1580156104e8573d6000803e3d6000fd5b505050506040513d601f19601f8201168201806040525081019061050c91906114b2565b90506001600160a01b0382163014806105225750805b6105875760405162461bcd60e51b815260206004820152603060248201527f436f6e7472616374206d75737420626520617070726f766564202d20706c656160448201526f1cd948185c1c1c9bdd9948199a5c9cdd60821b6064820152608401610376565b6040516331a9108f60e11b8152600481018990526001600160a01b038a1690636352211e90602401602060405180830381865afa9250505080156105e8575060408051601f3d908101601f191682019092526105e591810190611495565b60015b6106275760405162461bcd60e51b815260206004820152601060248201526f125b9d985b1a59081d1bdad95b88125160821b6044820152606401610376565b6001600160a01b0381166106745760405162461bcd60e51b8152602060048201526014602482015273151bdad95b88191bd95cc81b9bdd08195e1a5cdd60621b6044820152606401610376565b506002805460009182610686836114d4565b919050559050604051806101200160405280336001600160a01b031681526020018b6001600160a01b031681526020018a8152602001898152602001888152602001428152602001878152602001600115158152602001868152506003600083815260200190815260200160002060008201518160000160006101000a8154816001600160a01b0302191690836001600160a01b0316021790555060208201518160010160006101000a8154816001600160a01b0302191690836001600160a01b0316021790555060408201518160020155606082015181600301556080820151816004015560a0820151816005015560c0820151816006015560e08201518160070160006101000a81548160ff021916908315150217905550610100820151816008015590505060046000336001600160a01b03166001600160a01b031681526020019081526020016000208190806001815401808255809150506001900390600052602060002001600090919091909150557f00000000000000000000000000000000000000000000000000000000000000006001600160a01b031663a9059cbb338a6040518363ffffffff1660e01b815260040161085c9291906001600160a01b03929092168252602082015260400190565b6020604051808303816000875af115801561087b573d6000803e3d6000fd5b505050506040513d601f19601f8201168201806040525081019061089f91906114b2565b6108dd5760405162461bcd60e51b815260206004820152600f60248201526e151c985b9cd9995c8819985a5b1959608a1b6044820152606401610376565b604080516001600160a01b038c168152602081018b90529081018990526060810188905260808101879052339082907fe1032cc37af020767fb800df5603de546dbfb9fe6efd5a435f5654ebec1e43029060a00160405180910390a3925050506109476001600055565b9695505050505050565b610959611214565b7f00000000000000000000000000000000000000000000000000000000000000006001600160a01b031663a9059cbb61099a6001546001600160a01b031690565b6040516001600160e01b031960e084901b1681526001600160a01b039091166004820152602481018490526044016020604051808303816000875af11580156109e7573d6000803e3d6000fd5b505050506040513d601f19601f82011682018060405250810190610a0b91906114b2565b610a4b5760405162461bcd60e51b815260206004820152601160248201527015da5d1a191c985dd85b0819985a5b1959607a1b6044820152606401610376565b50565b610a56611214565b610a606000611241565b565b610a6a6111ea565b6000818152600360205260409020600781015460ff16610abe5760405162461bcd60e51b815260206004820152600f60248201526e4c6f616e206e6f742061637469766560881b6044820152606401610376565b80546001600160a01b03163314610b065760405162461bcd60e51b815260206004820152600c60248201526b2737ba103137b93937bbb2b960a11b6044820152606401610376565b6000610b1183610c39565b6040516323b872dd60e01b8152336004820152306024820152604481018290529091507f00000000000000000000000000000000000000000000000000000000000000006001600160a01b0316906323b872dd906064016020604051808303816000875af1158015610b87573d6000803e3d6000fd5b505050506040513d601f19601f82011682018060405250810190610bab91906114b2565b610bea5760405162461bcd60e51b815260206004820152601060248201526f14995c185e5b595b9d0819985a5b195960821b6044820152606401610376565b60078201805460ff19169055604051818152339084907f512d3e65b3e58c2187bb1872aa435dba5bd09c1c03823ba56ab70aac411e4a219060200160405180910390a35050610a4b6001600055565b600081815260036020818152604080842081516101208101835281546001600160a01b0390811682526001830154169381019390935260028101549183019190915291820154606082015260048201546080820152600582015460a0820152600682015460c0820152600782015460ff16151560e0820181905260089092015461010082015290610ccd5750600092915050565b60008160a0015142610cdf91906114ed565b90508160c00151811115610cf4575060c08101515b6000610d066127106301e13380611456565b8284608001518560600151610d1b9190611456565b610d259190611456565b610d2f9190611473565b9050808360600151610d419190611500565b95945050505050565b610d526111ea565b6000818152600360205260409020600781015460ff16610da65760405162461bcd60e51b815260206004820152600f60248201526e4c6f616e206e6f742061637469766560881b6044820152606401610376565b80600601548160050154610dba9190611500565b4211610dfb5760405162461bcd60e51b815260206004820152601060248201526f131bd85b881b9bdd08195e1c1a5c995960821b6044820152606401610376565b6001810154600282015460405163020604bf60e21b815260048101919091526000916001600160a01b03169063081812fc90602401602060405180830381865afa158015610e4d573d6000803e3d6000fd5b505050506040513d601f19601f82011682018060405250810190610e719190611495565b600183015460028401546040516331a9108f60e11b81529293506000926001600160a01b0390921691636352211e91610eb09160040190815260200190565b602060405180830381865afa158015610ecd573d6000803e3d6000fd5b505050506040513d601f19601f82011682018060405250810190610ef19190611495565b600184015460405163e985e9c560e01b81526001600160a01b0380841660048301523060248301529293506000929091169063e985e9c590604401602060405180830381865afa158015610f49573d6000803e3d6000fd5b505050506040513d601f19601f82011682018060405250810190610f6d91906114b2565b90506001600160a01b038316301480610f835750805b610fdb5760405162461bcd60e51b815260206004820152602360248201527f417070726f76616c207265766f6b6564202d2063616e6e6f74206c697175696460448201526261746560e81b6064820152608401610376565b60018401546001600160a01b03166323b872dd836110016001546001600160a01b031690565b60028801546040516001600160e01b031960e086901b1681526001600160a01b0393841660048201529290911660248301526044820152606401600060405180830381600087803b15801561105557600080fd5b505af1925050508015611066575060015b6110cb5760405162461bcd60e51b815260206004820152603060248201527f4e4654207472616e736665722072657374726963746564202d20636f6e74616360448201526f3a10383937ba37b1b7b61030b236b4b760811b6064820152608401610376565b60078401805460ff19169055604051339086907f73de9acc561f27528ab0a3b5dd63fefb4e59f95575891299a6f862a78779817690600090a350505050610a4b6001600055565b6004602052816000526040600020818154811061112e57600080fd5b90600052602060002001600091509150505481565b6001600160a01b0381166000908152600460209081526040918290208054835181840281018401909452808452606093928301828280156111a357602002820191906000526020600020905b81548152602001906001019080831161118f575b50505050509050919050565b6111b7611214565b6001600160a01b0381166111e157604051631e4fbdf760e01b815260006004820152602401610376565b610a4b81611241565b60026000540361120d57604051633ee5aeb560e01b815260040160405180910390fd5b6002600055565b6001546001600160a01b03163314610a605760405163118cdaa760e01b8152336004820152602401610376565b600180546001600160a01b038381166001600160a01b0319831681179093556040519116919082907f8be0079c531659141344cd1fd0a4f28419497f9722a3daafe3b4186f6b6457e090600090a35050565b6001600160a01b0381168114610a4b57600080fd5b60008060008060008060c087890312156112c157600080fd5b86356112cc81611293565b9860208801359850604088013597606081013597506080810135965060a00135945092505050565b60008060008060006080868803121561130c57600080fd5b853561131781611293565b9450602086013561132781611293565b935060408601359250606086013567ffffffffffffffff8082111561134b57600080fd5b818801915088601f83011261135f57600080fd5b81358181111561136e57600080fd5b89602082850101111561138057600080fd5b9699959850939650602001949392505050565b6000602082840312156113a557600080fd5b5035919050565b600080604083850312156113bf57600080fd5b82356113ca81611293565b946020939093013593505050565b6000602082840312156113ea57600080fd5b81356113f581611293565b9392505050565b6020808252825182820181905260009190848201906040850190845b8181101561143457835183529284019291840191600101611418565b50909695505050505050565b634e487b7160e01b600052601160045260246000fd5b808202811582820484141761146d5761146d611440565b92915050565b60008261149057634e487b7160e01b600052601260045260246000fd5b500490565b6000602082840312156114a757600080fd5b81516113f581611293565b6000602082840312156114c457600080fd5b815180151581146113f557600080fd5b6000600182016114e6576114e6611440565b5060010190565b8181038181111561146d5761146d611440565b8082018082111561146d5761146d61144056fea2646970667358221220867a85f39f211e5d023d1157426e398efd7debea669df108de0f8acc8c9310c564736f6c63430008180033",
  "linkReferences": {},
  "deployedLinkReferences": {}
}