{"contracts/DomainLending.sol":{"DomainLending":{"abi":[{"inputs":[{"internalType":"address","name":"_stablecoin","type":"address"}],"stateMutability":"nonpayable","type":"constructor"},{"inputs":[{"internalType":"address","name":"owner","type":"address"}],"name":"OwnableInvalidOwner","type":"error"},{"inputs":[{"internalType":"address","name":"account","type":"address"}],"name":"OwnableUnauthorizedAccount","type":"error"},{"inputs":[],"name":"ReentrancyGuardReentrantCall","type":"error"},{"anonymous":false,"inputs":[{"indexed":true,"internalType":"uint256","name":"loanId","type":"uint256"},{"indexed":true,"internalType":"address","name":"lender","type":"address"}],"name":"CollateralClaimed","type":"event"},{"anonymous":false,"inputs":[{"indexed":true,"internalType":"uint256","name":"loanId","type":"uint256"},{"indexed":true,"internalType":"address","name":"borrower","type":"address"},{"indexed":false,"internalType":"address","name":"domainNFT","type":"address"},{"indexed":false,"internalType":"uint256","name":"tokenId","type":"uint256"},{"indexed":false,"internalType":"uint256","name":"loanAmount","type":"uint256"},{"indexed":false,"internalType":"uint256","name":"interestRate","type":"uint256"},{"indexed":false,"internalType":"uint256","name":"duration","type":"uint256"}],"name":"LoanCreated","type":"event"},{"anonymous":false,"inputs":[{"indexed":true,"internalType":"uint256","name":"loanId","type":"uint256"},{"indexed":true,"internalType":"address","name":"liquidator","type":"address"}],"name":"LoanLiquidated","type":"event"},{"anonymous":false,"inputs":[{"indexed":true,"internalType":"uint256","name":"loanId","type":"uint256"},{"indexed":true,"internalType":"address","name":"borrower","type":"address"},{"indexed":false,"internalType":"uint256","name":"repaymentAmount","type":"uint256"}],"name":"LoanRepaid","type":"event"},{"anonymous":false,"inputs":[{"indexed":true,"internalType":"address","name":"previousOwner","type":"address"},{"indexed":true,"internalType":"address","name":"newOwner","type":"address"}],"name":"OwnershipTransferred","type":"event"},{"inputs":[],"name":"BASIS_POINTS","outputs":[{"internalType":"uint256","name":"","type":"uint256"}],"stateMutability":"view","type":"function"},{"inputs":[],"name":"LIQUIDATION_THRESHOLD","outputs":[{"internalType":"uint256","name":"","type":"uint256"}],"stateMutability":"view","type":"function"},{"inputs":[{"internalType":"address","name":"","type":"address"},{"internalType":"uint256","name":"","type":"uint256"}],"name":"borrowerLoans","outputs":[{"internalType":"uint256","name":"","type":"uint256"}],"stateMutability":"view","type":"function"},{"inputs":[{"internalType":"uint256","name":"loanId","type":"uint256"}],"name":"calculateRepaymentAmount","outputs":[{"internalType":"uint256","name":"","type":"uint256"}],"stateMutability":"view","type":"function"},{"inputs":[{"internalType":"address","name":"domainNFT","type":"address"},{"internalType":"uint256","name":"tokenId","type":"uint256"},{"internalType":"uint256","name":"loanAmount","type":"uint256"},{"internalType":"uint256","name":"interestRate","type":"uint256"},{"internalType":"uint256","name":"duration","type":"uint256"},{"internalType":"uint256","name":"collateralValue","type":"uint256"}],"name":"createLoan","outputs":[{"internalType":"uint256","name":"","type":"uint256"}],"stateMutability":"nonpayable","type":"function"},{"inputs":[{"internalType":"address","name":"borrower","type":"address"}],"name":"getBorrowerLoans","outputs":[{"internalType":"uint256[]","name":"","type":"uint256[]"}],"stateMutability":"view","type":"function"},{"inputs":[{"internalType":"uint256","name":"loanId","type":"uint256"}],"name":"liquidateLoan","outputs":[],"stateMutability":"nonpayable","type":"function"},{"inputs":[],"name":"loanCounter","outputs":[{"internalType":"uint256","name":"","type":"uint256"}],"stateMutability":"view","type":"function"},{"inputs":[{"internalType":"uint256","name":"","type":"uint256"}],"name":"loans","outputs":[{"internalType":"address","name":"borrower","type":"address"},{"internalType":"address","name":"domainNFT","type":"address"},{"internalType":"uint256","name":"tokenId","type":"uint256"},{"internalType":"uint256","name":"loanAmount","type":"uint256"},{"internalType":"uint256","name":"interestRate","type":"uint256"},{"internalType":"uint256","name":"startTime","type":"uint256"},{"internalType":"uint256","name":"duration","type":"uint256"},{"internalType":"bool","name":"active","type":"bool"},{"internalType":"uint256","name":"collateralValue","type":"uint256"}],"stateMutability":"view","type":"function"},{"inputs":[{"internalType":"address","name":"","type":"address"},{"internalType":"address","name":"","type":"address"},{"internalType":"uint256","name":"","type":"uint256"},{"internalType":"bytes","name":"","type":"bytes"}],"name":"onERC721Received","outputs":[{"internalType":"bytes4","name":"","type":"bytes4"}],"stateMutability":"pure","type":"function"},{"inputs":[],"name":"owner","outputs":[{"internalType":"address","name":"","type":"address"}],"stateMutability":"view","type":"function"},{"inputs":[],"name":"renounceOwnership","outputs":[],"stateMutability":"nonpayable","type":"function"},{"inputs":[{"internalType":"uint256","name":"loanId","type":"uint256"}],"name":"repayLoan","outputs":[],"stateMutability":"nonpayable","type":"function"},{"inputs":[],"name":"stablecoin","outputs":[{"internalType":"contract IERC20","name":"","type":"address"}],"stateMutability":"view","type":"function"},{"inputs":[{"internalType":"address","name":"newOwner","type":"address"}],"name":"transferOwnership","outputs":[],"stateMutability":"nonpayable","type":"function"},{"inputs":[{"internalType":"uint256","name":"amount","type":"uint256"}],"name":"withdrawFunds","outputs":[],"stateMutability":"nonpayable","type":"function"}],"evm":{"bytecode":{"linkReferences":{},"object":"60a060405234801561001057600080fd5b5060405161167038038061167083398101604081905261002f916100c7565b6001600055338061005a57604051631e4fbdf760e01b81526000600482015260240160405180910390fd5b61006381610075565b506001600160a01b03166080526100f7565b600180546001600160a01b038381166001600160a01b0319831681179093556040519116919082907f8be0079c531659141344cd1fd0a4f28419497f9722a3daafe3b4186f6b6457e090600090a35050565b6000602082840312156100d957600080fd5b81516001600160a01b03811681146100f057600080fd5b9392505050565b608051611549610127600039600081816102cb015281816107fc0152818161095b0152610b3601526115496000f3fe608060405234801561001057600080fd5b50600436106101005760003560e01c8063b119723911610097578063e3ed190211610066578063e3ed1902146102b3578063e9cbd822146102c6578063eee8b7ff146102ed578063f2fde38b1461030d57600080fd5b8063b1197239146101ca578063ccdd9f5d146101dd578063e1ec3c68146101f0578063e1f1c4a7146102aa57600080fd5b8063715018a6116100d3578063715018a6146101815780638da5cb5b1461018957806390a8ae9b146101ae578063ab7b1c89146101b757600080fd5b80631079f7af14610105578063150b7a021461012b578063155dd5ee1461016357806334d9289e14610178575b600080fd5b6101186101133660046112a8565b610320565b6040519081526020015b60405180910390f35b61014a6101393660046112f4565b630a85bd0160e11b95945050505050565b6040516001600160e01b03199091168152602001610122565b610176610171366004611393565b610951565b005b61011860025481565b610176610a4e565b6001546001600160a01b03165b6040516001600160a01b039091168152602001610122565b610118611f4081565b6101766101c5366004611393565b610a62565b6101186101d8366004611393565b610c39565b6101766101eb366004611393565b610d4a565b6102596101fe366004611393565b60036020819052600091825260409091208054600182015460028301549383015460048401546005850154600686015460078701546008909701546001600160a01b03968716989690951696939492939192909160ff169089565b604080516001600160a01b039a8b1681529990981660208a0152968801959095526060870193909352608086019190915260a085015260c0840152151560e083015261010082015261012001610122565b61011861271081565b6101186102c13660046113ac565b611112565b6101967f000000000000000000000000000000000000000000000000000000000000000081565b6103006102fb3660046113d8565b611143565b60405161012291906113fc565b61017661031b3660046113d8565b6111af565b600061032a6111ea565b6000851161037f5760405162461bcd60e51b815260206004820152601c60248201527f4c6f616e20616d6f756e74206d75737420626520706f7369746976650000000060448201526064015b60405180910390fd5b611f408261038f61271088611456565b6103999190611473565b11156103d65760405162461bcd60e51b815260206004820152600c60248201526b098a8ac40e8dede40d0d2ced60a31b6044820152606401610376565b62093a8083101580156103ed57506301e133808311155b61042c5760405162461bcd60e51b815260206004820152601060248201526f24b73b30b634b210323ab930ba34b7b760811b6044820152606401610376565b60405163020604bf60e21b8152600481018790526000906001600160a01b0389169063081812fc90602401602060405180830381865afa158015610474573d6000803e3d6000fd5b505050506040513d601f19601f820116820180604052508101906104989190611495565b60405163e985e9c560e01b81523360048201523060248201529091506000906001600160a01b038a169063e985e9c590604401602060405180830381865afa1580156104e8573d6000803e3d6000fd5b505050506040513d601f19601f8201168201806040525081019061050c91906114b2565b90506001600160a01b0382163014806105225750805b6105875760405162461bcd60e51b815260206004820152603060248201527f436f6e7472616374206d75737420626520617070726f766564202d20706c656160448201526f1cd948185c1c1c9bdd9948199a5c9cdd60821b6064820152608401610376565b6040516331a9108f60e11b8152600481018990526001600160a01b038a1690636352211e90602401602060405180830381865afa9250505080156105e8575060408051601f3d908101601f191682019092526105e591810190611495565b60015b6106275760405162461bcd60e51b815260206004820152601060248201526f125b9d985b1a59081d1bdad95b88125160821b6044820152606401610376565b6001600160a01b0381166106745760405162461bcd60e51b8152602060048201526014602482015273151bdad95b88191bd95cc81b9bdd08195e1a5cdd60621b6044820152606401610376565b506002805460009182610686836114d4565b919050559050604051806101200160405280336001600160a01b031681526020018b6001600160a01b031681526020018a8152602001898152602001888152602001428152602001878152602001600115158152602001868152506003600083815260200190815260200160002060008201518160000160006101000a8154816001600160a01b0302191690836001600160a01b0316021790555060208201518160010160006101000a8154816001600160a01b0302191690836001600160a01b0316021790555060408201518160020155606082015181600301556080820151816004015560a0820151816005015560c0820151816006015560e08201518160070160006101000a81548160ff021916908315150217905550610100820151816008015590505060046000336001600160a01b03166001600160a01b031681526020019081526020016000208190806001815401808255809150506001900390600052602060002001600090919091909150557f00000000000000000000000000000000000000000000000000000000000000006001600160a01b031663a9059cbb338a6040518363ffffffff1660e01b815260040161085c9291906001600160a01b03929092168252602082015260400190565b6020604051808303816000875af115801561087b573d6000803e3d6000fd5b505050506040513d601f19601f8201168201806040525081019061089f91906114b2565b6108dd5760405162461bcd60e51b815260206004820152600f60248201526e151c985b9cd9995c8819985a5b1959608a1b6044820152606401610376565b604080516001600160a01b038c168152602081018b90529081018990526060810188905260808101879052339082907fe1032cc37af020767fb800df5603de546dbfb9fe6efd5a435f5654ebec1e43029060a00160405180910390a3925050506109476001600055565b9695505050505050565b610959611214565b7f00000000000000000000000000000000000000000000000000000000000000006001600160a01b031663a9059cbb61099a6001546001600160a01b031690565b6040516001600160e01b031960e084901b1681526001600160a01b039091166004820152602481018490526044016020604051808303816000875af11580156109e7573d6000803e3d6000fd5b505050506040513d601f19601f82011682018060405250810190610a0b91906114b2565b610a4b5760405162461bcd60e51b815260206004820152601160248201527015da5d1a191c985dd85b0819985a5b1959607a1b6044820152606401610376565b50565b610a56611214565b610a606000611241565b565b610a6a6111ea565b6000818152600360205260409020600781015460ff16610abe5760405162461bcd60e51b815260206004820152600f60248201526e4c6f616e206e6f742061637469766560881b6044820152606401610376565b80546001600160a01b03163314610b065760405162461bcd60e51b815260206004820152600c60248201526b2737ba103137b93937bbb2b960a11b6044820152606401610376565b6000610b1183610c39565b6040516323b872dd60e01b8152336004820152306024820152604481018290529091507f00000000000000000000000000000000000000000000000000000000000000006001600160a01b0316906323b872dd906064016020604051808303816000875af1158015610b87573d6000803e3d6000fd5b505050506040513d601f19601f82011682018060405250810190610bab91906114b2565b610bea5760405162461bcd60e51b815260206004820152601060248201526f14995c185e5b595b9d0819985a5b195960821b6044820152606401610376565b60078201805460ff19169055604051818152339084907f512d3e65b3e58c2187bb1872aa435dba5bd09c1c03823ba56ab70aac411e4a219060200160405180910390a35050610a4b6001600055565b600081815260036020818152604080842081516101208101835281546001600160a01b0390811682526001830154169381019390935260028101549183019190915291820154606082015260048201546080820152600582015460a0820152600682015460c0820152600782015460ff16151560e0820181905260089092015461010082015290610ccd5750600092915050565b60008160a0015142610cdf91906114ed565b90508160c00151811115610cf4575060c08101515b6000610d066127106301e13380611456565b8284608001518560600151610d1b9190611456565b610d259190611456565b610d2f9190611473565b9050808360600151610d419190611500565b95945050505050565b610d526111ea565b6000818152600360205260409020600781015460ff16610da65760405162461bcd60e51b815260206004820152600f60248201526e4c6f616e206e6f742061637469766560881b6044820152606401610376565b80600601548160050154610dba9190611500565b4211610dfb5760405162461bcd60e51b815260206004820152601060248201526f131bd85b881b9bdd08195e1c1a5c995960821b6044820152606401610376565b6001810154600282015460405163020604bf60e21b815260048101919091526000916001600160a01b03169063081812fc90602401602060405180830381865afa158015610e4d573d6000803e3d6000fd5b505050506040513d601f19601f82011682018060405250810190610e719190611495565b600183015460028401546040516331a9108f60e11b81529293506000926001600160a01b0390921691636352211e91610eb09160040190815260200190565b602060405180830381865afa158015610ecd573d6000803e3d6000fd5b505050506040513d601f19601f82011682018060405250810190610ef19190611495565b600184015460405163e985e9c560e01b81526001600160a01b0380841660048301523060248301529293506000929091169063e985e9c590604401602060405180830381865afa158015610f49573d6000803e3d6000fd5b505050506040513d601f19601f82011682018060405250810190610f6d91906114b2565b90506001600160a01b038316301480610f835750805b610fdb5760405162461bcd60e51b815260206004820152602360248201527f417070726f76616c207265766f6b6564202d2063616e6e6f74206c697175696460448201526261746560e81b6064820152608401610376565b60018401546001600160a01b03166323b872dd836110016001546001600160a01b031690565b60028801546040516001600160e01b031960e086901b1681526001600160a01b0393841660048201529290911660248301526044820152606401600060405180830381600087803b15801561105557600080fd5b505af1925050508015611066575060015b6110cb5760405162461bcd60e51b815260206004820152603060248201527f4e4654207472616e736665722072657374726963746564202d20636f6e74616360448201526f3a10383937ba37b1b7b61030b236b4b760811b6064820152608401610376565b60078401805460ff19169055604051339086907f73de9acc561f27528ab0a3b5dd63fefb4e59f95575891299a6f862a78779817690600090a350505050610a4b6001600055565b6004602052816000526040600020818154811061112e57600080fd5b90600052602060002001600091509150505481565b6001600160a01b0381166000908152600460209081526040918290208054835181840281018401909452808452606093928301828280156111a357602002820191906000526020600020905b81548152602001906001019080831161118f575b50505050509050919050565b6111b7611214565b6001600160a01b0381166111e157604051631e4fbdf760e01b815260006004820152602401610376565b610a4b81611241565b60026000540361120d57604051633ee5aeb560e01b815260040160405180910390fd5b6002600055565b6001546001600160a01b03163314610a605760405163118cdaa760e01b8152336004820152602401610376565b600180546001600160a01b038381166001600160a01b0319831681179093556040519116919082907f8be0079c531659141344cd1fd0a4f28419497f9722a3daafe3b4186f6b6457e090600090a35050565b6001600160a01b0381168114610a4b57600080fd5b60008060008060008060c087890312156112c157600080fd5b86356112cc81611293565b9860208801359850604088013597606081013597506080810135965060a00135945092505050565b60008060008060006080868803121561130c57600080fd5b853561131781611293565b9450602086013561132781611293565b935060408601359250606086013567ffffffffffffffff8082111561134b57600080fd5b818801915088601f83011261135f57600080fd5b81358181111561136e57600080fd5b89602082850101111561138057600080fd5b9699959850939650602001949392505050565b6000602082840312156113a557600080fd5b5035919050565b600080604083850312156113bf57600080fd5b82356113ca81611293565b946020939093013593505050565b6000602082840312156113ea57600080fd5b81356113f581611293565b9392505050565b6020808252825182820181905260009190848201906040850190845b8181101561143457835183529284019291840191600101611418565b50909695505050505050565b634e487b7160e01b600052601160045260246000fd5b808202811582820484141761146d5761146d611440565b92915050565b60008261149057634e487b7160e01b600052601260045260246000fd5b500490565b6000602082840312156114a757600080fd5b81516113f581611293565b6000602082840312156114c457600080fd5b815180151581146113f557600080fd5b6000600182016114e6576114e6611440565b5060010190565b8181038181111561146d5761146d611440565b8082018082111561146d5761146d61144056fea2646970667358221220867a85f39f211e5d023d1157426e398efd7debea669df108de0f8acc8c9310c564736f6c63430008180033","opcodes":"PUSH1 0xA0 PUSH1 0x40 MSTORE CALLVALUE DUP1 ISZERO PUSH2 0x10 JUMPI PUSH1 0x0 DUP1 REVERT JUMPDEST POP PUSH1 0x40 MLOAD PUSH2 0x1670 CODESIZE SUB DUP1 PUSH2 0x1670 DUP4 CODECOPY DUP2 ADD PUSH1 0x40 DUP2 SWAP1 MSTORE PUSH2 0x2F SWAP2 PUSH2 0xC7 JUMP JUMPDEST PUSH1 0x1 PUSH1 0x0 SSTORE CALLER DUP1 PUSH2 0x5A JUMPI PUSH1 0x40 MLOAD PUSH4 0x1E4FBDF7 PUSH1 0xE0 SHL DUP2 MSTORE PUSH1 0x0 PUSH1 0x4 DUP3 ADD MSTORE PUSH1 0x24 ADD PUSH1 0x40 MLOAD DUP1 SWAP2 SUB SWAP1 REVERT JUMPDEST PUSH2 0x63 DUP2 PUSH2 0x75 JUMP JUMPDEST POP PUSH1 0x1 PUSH1 0x1 PUSH1 0xA0 SHL SUB AND PUSH1 0x80 MSTORE PUSH2 0xF7 JUMP JUMPDEST PUSH1 0x1 DUP1 SLOAD PUSH1 0x1 PUSH1 0x1 PUSH1 0xA0 SHL SUB DUP4 DUP2 AND PUSH1 0x1 PUSH1 0x1 PUSH1 0xA0 SHL SUB NOT DUP4 AND DUP2 OR SWAP1 SWAP4 SSTORE PUSH1 0x40 MLOAD SWAP2 AND SWAP2 SWAP1 DUP3 SWAP1 PUSH32 0x8BE0079C531659141344CD1FD0A4F28419497F9722A3DAAFE3B4186F6B6457E0 SWAP1 PUSH1 0x0 SWAP1 LOG3 POP POP JUMP JUMPDEST PUSH1 0x0 PUSH1 0x20 DUP3 DUP5 SUB SLT ISZERO PUSH2 0xD9 JUMPI PUSH1 0x0 DUP1 REVERT JUMPDEST DUP2 MLOAD PUSH1 0x1 PUSH1 0x1 PUSH1 0xA0 SHL SUB DUP2 AND DUP2 EQ PUSH2 0xF0 JUMPI PUSH1 0x0 DUP1 REVERT JUMPDEST SWAP4 SWAP3 POP POP POP JUMP JUMPDEST PUSH1 0x80 MLOAD PUSH2 0x1549 PUSH2 0x127 PUSH1 0x0 CODECOPY PUSH1 0x0 DUP2 DUP2 PUSH2 0x2CB ADD MSTORE DUP2 DUP2 PUSH2 0x7FC ADD MSTORE DUP2 DUP2 PUSH2 0x95B ADD MSTORE PUSH2 0xB36 ADD MSTORE PUSH2 0x1549 PUSH1 0x0 RETURN INVALID PUSH1 0x80 PUSH1 0x40 MSTORE CALLVALUE DUP1 ISZERO PUSH2 0x10 JUMPI PUSH1 0x0 DUP1 REVERT JUMPDEST POP PUSH1 0x4 CALLDATASIZE LT PUSH2 0x100 JUMPI PUSH1 0x0 CALLDATALOAD PUSH1 0xE0 SHR DUP1 PUSH4 0xB1197239 GT PUSH2 0x97 JUMPI DUP1 PUSH4 0xE3ED1902 GT PUSH2 0x66 JUMPI DUP1 PUSH4 0xE3ED1902 EQ PUSH2 0x2B3 JUMPI DUP1 PUSH4 0xE9CBD822 EQ PUSH2 0x2C6 JUMPI DUP1 PUSH4 0xEEE8B7FF EQ PUSH2 0x2ED JUMPI DUP1 PUSH4 0xF2FDE38B EQ PUSH2 0x30D JUMPI PUSH1 0x0 DUP1 REVERT JUMPDEST DUP1 PUSH4 0xB1197239 EQ PUSH2 0x1CA JUMPI DUP1 PUSH4 0xCCDD9F5D EQ PUSH2 0x1DD JUMPI DUP1 PUSH4 0xE1EC3C68 EQ PUSH2 0x1F0 JUMPI DUP1 PUSH4 0xE1F1C4A7 EQ PUSH2 0x2AA JUMPI PUSH1 0x0 DUP1 REVERT JUMPDEST DUP1 PUSH4 0x715018A6 GT PUSH2 0xD3 JUMPI DUP1 PUSH4 0x715018A6 EQ PUSH2 0x181 JUMPI DUP1 PUSH4 0x8DA5CB5B EQ PUSH2 0x189 JUMPI DUP1 PUSH4 0x90A8AE9B EQ PUSH2 0x1AE JUMPI DUP1 PUSH4 0xAB7B1C89 EQ PUSH2 0x1B7 JUMPI PUSH1 0x0 DUP1 REVERT JUMPDEST DUP1 PUSH4 0x1079F7AF EQ PUSH2 0x105 JUMPI DUP1 PUSH4 0x150B7A02 EQ PUSH2 0x12B JUMPI DUP1 PUSH4 0x155DD5EE EQ PUSH2 0x163 JUMPI DUP1 PUSH4 0x34D9289E EQ PUSH2 0x178 JUMPI JUMPDEST PUSH1 0x0 DUP1 REVERT JUMPDEST PUSH2 0x118 PUSH2 0x113 CALLDATASIZE PUSH1 0x4 PUSH2 0x12A8 JUMP JUMPDEST PUSH2 0x320 JUMP JUMPDEST PUSH1 0x40 MLOAD SWAP1 DUP2 MSTORE PUSH1 0x20 ADD JUMPDEST PUSH1 0x40 MLOAD DUP1 SWAP2 SUB SWAP1 RETURN JUMPDEST PUSH2 0x14A PUSH2 0x139 CALLDATASIZE PUSH1 0x4 PUSH2 0x12F4 JUMP JUMPDEST PUSH4 0xA85BD01 PUSH1 0xE1 SHL SWAP6 SWAP5 POP POP POP POP POP JUMP JUMPDEST PUSH1 0x40 MLOAD PUSH1 0x1 PUSH1 0x1 PUSH1 0xE0 SHL SUB NOT SWAP1 SWAP2 AND DUP2 MSTORE PUSH1 0x20 ADD PUSH2 0x122 JUMP JUMPDEST PUSH2 0x176 PUSH2 0x171 CALLDATASIZE PUSH1 0x4 PUSH2 0x1393 JUMP JUMPDEST PUSH2 0x951 JUMP JUMPDEST STOP JUMPDEST PUSH2 0x118 PUSH1 0x2 SLOAD DUP2 JUMP JUMPDEST PUSH2 0x176 PUSH2 0xA4E JUMP JUMPDEST PUSH1 0x1 SLOAD PUSH1 0x1 PUSH1 0x1 PUSH1 0xA0 SHL SUB AND JUMPDEST PUSH1 0x40 MLOAD PUSH1 0x1 PUSH1 0x1 PUSH1 0xA0 SHL SUB SWAP1 SWAP2 AND DUP2 MSTORE PUSH1 0x20 ADD PUSH2 0x122 JUMP JUMPDEST PUSH2 0x118 PUSH2 0x1F40 DUP2 JUMP JUMPDEST PUSH2 0x176 PUSH2 0x1C5 CALLDATASIZE PUSH1 0x4 PUSH2 0x1393 JUMP JUMPDEST PUSH2 0xA62 JUMP JUMPDEST PUSH2 0x118 PUSH2 0x1D8 CALLDATASIZE PUSH1 0x4 PUSH2 0x1393 JUMP JUMPDEST PUSH2 0xC39 JUMP JUMPDEST PUSH2 0x176 PUSH2 0x1EB CALLDATASIZE PUSH1 0x4 PUSH2 0x1393 JUMP JUMPDEST PUSH2 0xD4A JUMP JUMPDEST PUSH2 0x259 PUSH2 0x1FE CALLDATASIZE PUSH1 0x4 PUSH2 0x1393 JUMP JUMPDEST PUSH1 0x3 PUSH1 0x20 DUP2 SWAP1 MSTORE PUSH1 0x0 SWAP2 DUP3 MSTORE PUSH1 0x40 SWAP1 SWAP2 KECCAK256 DUP1 SLOAD PUSH1 0x1 DUP3 ADD SLOAD PUSH1 0x2 DUP4 ADD SLOAD SWAP4 DUP4 ADD SLOAD PUSH1 0x4 DUP5 ADD SLOAD PUSH1 0x5 DUP6 ADD SLOAD PUSH1 0x6 DUP7 ADD SLOAD PUSH1 0x7 DUP8 ADD SLOAD PUSH1 0x8 SWAP1 SWAP8 ADD SLOAD PUSH1 0x1 PUSH1 0x1 PUSH1 0xA0 SHL SUB SWAP7 DUP8 AND SWAP9 SWAP7 SWAP1 SWAP6 AND SWAP7 SWAP4 SWAP5 SWAP3 SWAP4 SWAP2 SWAP3 SWAP1 SWAP2 PUSH1 0xFF AND SWAP1 DUP10 JUMP JUMPDEST PUSH1 0x40 DUP1 MLOAD PUSH1 0x1 PUSH1 0x1 PUSH1 0xA0 SHL SUB SWAP11 DUP12 AND DUP2 MSTORE SWAP10 SWAP1 SWAP9 AND PUSH1 0x20 DUP11 ADD MSTORE SWAP7 DUP9 ADD SWAP6 SWAP1 SWAP6 MSTORE PUSH1 0x60 DUP8 ADD SWAP4 SWAP1 SWAP4 MSTORE PUSH1 0x80 DUP7 ADD SWAP2 SWAP1 SWAP2 MSTORE PUSH1 0xA0 DUP6 ADD MSTORE PUSH1 0xC0 DUP5 ADD MSTORE ISZERO ISZERO PUSH1 0xE0 DUP4 ADD MSTORE PUSH2 0x100 DUP3 ADD MSTORE PUSH2 0x120 ADD PUSH2 0x122 JUMP JUMPDEST PUSH2 0x118 PUSH2 0x2710 DUP2 JUMP JUMPDEST PUSH2 0x118 PUSH2 0x2C1 CALLDATASIZE PUSH1 0x4 PUSH2 0x13AC JUMP JUMPDEST PUSH2 0x1112 JUMP JUMPDEST PUSH2 0x196 PUSH32 0x0 DUP2 JUMP JUMPDEST PUSH2 0x300 PUSH2 0x2FB CALLDATASIZE PUSH1 0x4 PUSH2 0x13D8 JUMP JUMPDEST PUSH2 0x1143 JUMP JUMPDEST PUSH1 0x40 MLOAD PUSH2 0x122 SWAP2 SWAP1 PUSH2 0x13FC JUMP JUMPDEST PUSH2 0x176 PUSH2 0x31B CALLDATASIZE PUSH1 0x4 PUSH2 0x13D8 JUMP JUMPDEST PUSH2 0x11AF JUMP JUMPDEST PUSH1 0x0 PUSH2 0x32A PUSH2 0x11EA JUMP JUMPDEST PUSH1 0x0 DUP6 GT PUSH2 0x37F JUMPI PUSH1 0x40 MLOAD PUSH3 0x461BCD PUSH1 0xE5 SHL DUP2 MSTORE PUSH1 0x20 PUSH1 0x4 DUP3 ADD MSTORE PUSH1 0x1C PUSH1 0x24 DUP3 ADD MSTORE PUSH32 0x4C6F616E20616D6F756E74206D75737420626520706F73697469766500000000 PUSH1 0x44 DUP3 ADD MSTORE PUSH1 0x64 ADD JUMPDEST PUSH1 0x40 MLOAD DUP1 SWAP2 SUB SWAP1 REVERT JUMPDEST PUSH2 0x1F40 DUP3 PUSH2 0x38F PUSH2 0x2710 DUP9 PUSH2 0x1456 JUMP JUMPDEST PUSH2 0x399 SWAP2 SWAP1 PUSH2 0x1473 JUMP JUMPDEST GT ISZERO PUSH2 0x3D6 JUMPI PUSH1 0x40 MLOAD PUSH3 0x461BCD PUSH1 0xE5 SHL DUP2 MSTORE PUSH1 0x20 PUSH1 0x4 DUP3 ADD MSTORE PUSH1 0xC PUSH1 0x24 DUP3 ADD MSTORE PUSH12 0x98A8AC40E8DEDE40D0D2CED PUSH1 0xA3 SHL PUSH1 0x44 DUP3 ADD MSTORE PUSH1 0x64 ADD PUSH2 0x376 JUMP JUMPDEST PUSH3 0x93A80 DUP4 LT ISZERO DUP1 ISZERO PUSH2 0x3ED JUMPI POP PUSH4 0x1E13380 DUP4 GT ISZERO JUMPDEST PUSH2 0x42C JUMPI PUSH1 0x40 MLOAD PUSH3 0x461BCD PUSH1 0xE5 SHL DUP2 MSTORE PUSH1 0x20 PUSH1 0x4 DUP3 ADD MSTORE PUSH1 0x10 PUSH1 0x24 DUP3 ADD MSTORE PUSH16 0x24B73B30B634B210323AB930BA34B7B7 PUSH1 0x81 SHL PUSH1 0x44 DUP3 ADD MSTORE PUSH1 0x64 ADD PUSH2 0x376 JUMP JUMPDEST PUSH1 0x40 MLOAD PUSH4 0x20604BF PUSH1 0xE2 SHL DUP2 MSTORE PUSH1 0x4 DUP2 ADD DUP8 SWAP1 MSTORE PUSH1 0x0 SWAP1 PUSH1 0x1 PUSH1 0x1 PUSH1 0xA0 SHL SUB DUP10 AND SWAP1 PUSH4 0x81812FC SWAP1 PUSH1 0x24 ADD PUSH1 0x20 PUSH1 0x40 MLOAD DUP1 DUP4 SUB DUP2 DUP7 GAS STATICCALL ISZERO DUP1 ISZERO PUSH2 0x474 JUMPI RETURNDATASIZE PUSH1 0x0 DUP1 RETURNDATACOPY RETURNDATASIZE PUSH1 0x0 REVERT JUMPDEST POP POP POP POP PUSH1 0x40 MLOAD RETURNDATASIZE PUSH1 0x1F NOT PUSH1 0x1F DUP3 ADD AND DUP3 ADD DUP1 PUSH1 0x40 MSTORE POP DUP2 ADD SWAP1 PUSH2 0x498 SWAP2 SWAP1 PUSH2 0x1495 JUMP JUMPDEST PUSH1 0x40 MLOAD PUSH4 0xE985E9C5 PUSH1 0xE0 SHL DUP2 MSTORE CALLER PUSH1 0x4 DUP3 ADD MSTORE ADDRESS PUSH1 0x24 DUP3 ADD MSTORE SWAP1 SWAP2 POP PUSH1 0x0 SWAP1 PUSH1 0x1 PUSH1 0x1 PUSH1 0xA0 SHL SUB DUP11 AND SWAP1 PUSH4 0xE985E9C5 SWAP1 PUSH1 0x44 ADD PUSH1 0x20 PUSH1 0x40 MLOAD DUP1 DUP4 SUB DUP2 DUP7 GAS STATICCALL ISZERO DUP1 ISZERO PUSH2 0x4E8 JUMPI RETURNDATASIZE PUSH1 0x0 DUP1 RETURNDATACOPY RETURNDATASIZE PUSH1 0x0 REVERT JUMPDEST POP POP POP POP PUSH1 0x40 MLOAD RETURNDATASIZE PUSH1 0x1F NOT PUSH1 0x1F DUP3 ADD AND DUP3 ADD DUP1 PUSH1 0x40 MSTORE POP DUP2 ADD SWAP1 PUSH2 0x50C SWAP2 SWAP1 PUSH2 0x14B2 JUMP JUMPDEST SWAP1 POP PUSH1 0x1 PUSH1 0x1 PUSH1 0xA0 SHL SUB DUP3 AND ADDRESS EQ DUP1 PUSH2 0x522 JUMPI POP DUP1 JUMPDEST PUSH2 0x587 JUMPI PUSH1 0x40 MLOAD PUSH3 0x461BCD PUSH1 0xE5 SHL DUP2 MSTORE PUSH1 0x20 PUSH1 0x4 DUP3 ADD MSTORE PUSH1 0x30 PUSH1 0x24 DUP3 ADD MSTORE PUSH32 0x436F6E7472616374206D75737420626520617070726F766564202D20706C6561 PUSH1 0x44 DUP3 ADD MSTORE PUSH16 0x1CD948185C1C1C9BDD9948199A5C9CDD PUSH1 0x82 SHL PUSH1 0x64 DUP3 ADD MSTORE PUSH1 0x84 ADD PUSH2 0x376 JUMP JUMPDEST PUSH1 0x40 MLOAD PUSH4 0x31A9108F PUSH1 0xE1 SHL DUP2 MSTORE PUSH1 0x4 DUP2 ADD DUP10 SWAP1 MSTORE PUSH1 0x1 PUSH1 0x1 PUSH1 0xA0 SHL SUB DUP11 AND SWAP1 PUSH4 0x6352211E SWAP1 PUSH1 0x24 ADD PUSH1 0x20 PUSH1 0x40 MLOAD DUP1 DUP4 SUB DUP2 DUP7 GAS STATICCALL SWAP3 POP POP POP DUP1 ISZERO PUSH2 0x5E8 JUMPI POP PUSH1 0x40 DUP1 MLOAD PUSH1 0x1F RETURNDATASIZE SWAP1 DUP2 ADD PUSH1 0x1F NOT AND DUP3 ADD SWAP1 SWAP3 MSTORE PUSH2 0x5E5 SWAP2 DUP2 ADD SWAP1 PUSH2 0x1495 JUMP JUMPDEST PUSH1 0x1 JUMPDEST PUSH2 0x627 JUMPI PUSH1 0x40 MLOAD PUSH3 0x461BCD PUSH1 0xE5 SHL DUP2 MSTORE PUSH1 0x20 PUSH1 0x4 DUP3 ADD MSTORE PUSH1 0x10 PUSH1 0x24 DUP3 ADD MSTORE PUSH16 0x125B9D985B1A59081D1BDAD95B881251 PUSH1 0x82 SHL PUSH1 0x44 DUP3 ADD MSTORE PUSH1 0x64 ADD PUSH2 0x376 JUMP JUMPDEST PUSH1 0x1 PUSH1 0x1 PUSH1 0xA0 SHL SUB DUP2 AND PUSH2 0x674 JUMPI PUSH1 0x40 MLOAD PUSH3 0x461BCD PUSH1 0xE5 SHL DUP2 MSTORE PUSH1 0x20 PUSH1 0x4 DUP3 ADD MSTORE PUSH1 0x14 PUSH1 0x24 DUP3 ADD MSTORE PUSH20 0x151BDAD95B88191BD95CC81B9BDD08195E1A5CDD PUSH1 0x62 SHL PUSH1 0x44 DUP3 ADD MSTORE PUSH1 0x64 ADD PUSH2 0x376 JUMP JUMPDEST POP PUSH1 0x2 DUP1 SLOAD PUSH1 0x0 SWAP2 DUP3 PUSH2 0x686 DUP4 PUSH2 0x14D4 JUMP JUMPDEST SWAP2 SWAP1 POP SSTORE SWAP1 POP PUSH1 0x40 MLOAD DUP1 PUSH2 0x120 ADD PUSH1 0x40 MSTORE DUP1 CALLER PUSH1 0x1 PUSH1 0x1 PUSH1 0xA0 SHL SUB AND DUP2 MSTORE PUSH1 0x20 ADD DUP12 PUSH1 0x1 PUSH1 0x1 PUSH1 0xA0 SHL SUB AND DUP2 MSTORE PUSH1 0x20 ADD DUP11 DUP2 MSTORE PUSH1 0x20 ADD DUP10 DUP2 MSTORE PUSH1 0x20 ADD DUP9 DUP2 MSTORE PUSH1 0x20 ADD TIMESTAMP DUP2 MSTORE PUSH1 0x20 ADD DUP8 DUP2 MSTORE PUSH1 0x20 ADD PUSH1 0x1 ISZERO ISZERO DUP2 MSTORE PUSH1 0x20 ADD DUP7 DUP2 MSTORE POP PUSH1 0x3 PUSH1 0x0 DUP4 DUP2 MSTORE PUSH1 0x20 ADD SWAP1 DUP2 MSTORE PUSH1 0x20 ADD PUSH1 0x0 KECCAK256 PUSH1 0x0 DUP3 ADD MLOAD DUP2 PUSH1 0x0 ADD PUSH1 0x0 PUSH2 0x100 EXP DUP2 SLOAD DUP2 PUSH1 0x1 PUSH1 0x1 PUSH1 0xA0 SHL SUB MUL NOT AND SWAP1 DUP4 PUSH1 0x1 PUSH1 0x1 PUSH1 0xA0 SHL SUB AND MUL OR SWAP1 SSTORE POP PUSH1 0x20 DUP3 ADD MLOAD DUP2 PUSH1 0x1 ADD PUSH1 0x0 PUSH2 0x100 EXP DUP2 SLOAD DUP2 PUSH1 0x1 PUSH1 0x1 PUSH1 0xA0 SHL SUB MUL NOT AND SWAP1 DUP4 PUSH1 0x1 PUSH1 0x1 PUSH1 0xA0 SHL SUB AND MUL OR SWAP1 SSTORE POP PUSH1 0x40 DUP3 ADD MLOAD DUP2 PUSH1 0x2 ADD SSTORE PUSH1 0x60 DUP3 ADD MLOAD DUP2 PUSH1 0x3 ADD SSTORE PUSH1 0x80 DUP3 ADD MLOAD DUP2 PUSH1 0x4 ADD SSTORE PUSH1 0xA0 DUP3 ADD MLOAD DUP2 PUSH1 0x5 ADD SSTORE PUSH1 0xC0 DUP3 ADD MLOAD DUP2 PUSH1 0x6 ADD SSTORE PUSH1 0xE0 DUP3 ADD MLOAD DUP2 PUSH1 0x7 ADD PUSH1 0x0 PUSH2 0x100 EXP DUP2 SLOAD DUP2 PUSH1 0xFF MUL NOT AND SWAP1 DUP4 ISZERO ISZERO MUL OR SWAP1 SSTORE POP PUSH2 0x100 DUP3 ADD MLOAD DUP2 PUSH1 0x8 ADD SSTORE SWAP1 POP POP PUSH1 0x4 PUSH1 0x0 CALLER PUSH1 0x1 PUSH1 0x1 PUSH1 0xA0 SHL SUB AND PUSH1 0x1 PUSH1 0x1 PUSH1 0xA0 SHL SUB AND DUP2 MSTORE PUSH1 0x20 ADD SWAP1 DUP2 MSTORE PUSH1 0x20 ADD PUSH1 0x0 KECCAK256 DUP2 SWAP1 DUP1 PUSH1 0x1 DUP2 SLOAD ADD DUP1 DUP3 SSTORE DUP1 SWAP2 POP POP PUSH1 0x1 SWAP1 SUB SWAP1 PUSH1 0x0 MSTORE PUSH1 0x20 PUSH1 0x0 KECCAK256 ADD PUSH1 0x0 SWAP1 SWAP2 SWAP1 SWAP2 SWAP1 SWAP2 POP SSTORE PUSH32 0x0 PUSH1 0x1 PUSH1 0x1 PUSH1 0xA0 SHL SUB AND PUSH4 0xA9059CBB CALLER DUP11 PUSH1 0x40 MLOAD DUP4 PUSH4 0xFFFFFFFF AND PUSH1 0xE0 SHL DUP2 MSTORE PUSH1 0x4 ADD PUSH2 0x85C SWAP3 SWAP2 SWAP1 PUSH1 0x1 PUSH1 0x1 PUSH1 0xA0 SHL SUB SWAP3 SWAP1 SWAP3 AND DUP3 MSTORE PUSH1 0x20 DUP3 ADD MSTORE PUSH1 0x40 ADD SWAP1 JUMP JUMPDEST PUSH1 0x20 PUSH1 0x40 MLOAD DUP1 DUP4 SUB DUP2 PUSH1 0x0 DUP8 GAS CALL ISZERO DUP1 ISZERO PUSH2 0x87B JUMPI RETURNDATASIZE PUSH1 0x0 DUP1 RETURNDATACOPY RETURNDATASIZE PUSH1 0x0 REVERT JUMPDEST POP POP POP POP PUSH1 0x40 MLOAD RETURNDATASIZE PUSH1 0x1F NOT PUSH1 0x1F DUP3 ADD AND DUP3 ADD DUP1 PUSH1 0x40 MSTORE POP DUP2 ADD SWAP1 PUSH2 0x89F SWAP2 SWAP1 PUSH2 0x14B2 JUMP JUMPDEST PUSH2 0x8DD JUMPI PUSH1 0x40 MLOAD PUSH3 0x461BCD PUSH1 0xE5 SHL DUP2 MSTORE PUSH1 0x20 PUSH1 0x4 DUP3 ADD MSTORE PUSH1 0xF PUSH1 0x24 DUP3 ADD MSTORE PUSH15 0x151C985B9CD9995C8819985A5B1959 PUSH1 0x8A SHL PUSH1 0x44 DUP3 ADD MSTORE PUSH1 0x64 ADD PUSH2 0x376 JUMP JUMPDEST PUSH1 0x40 DUP1 MLOAD PUSH1 0x1 PUSH1 0x1 PUSH1 0xA0 SHL SUB DUP13 AND DUP2 MSTORE PUSH1 0x20 DUP2 ADD DUP12 SWAP1 MSTORE SWAP1 DUP2 ADD DUP10 SWAP1 MSTORE PUSH1 0x60 DUP2 ADD DUP9 SWAP1 MSTORE PUSH1 0x80 DUP2 ADD DUP8 SWAP1 MSTORE CALLER SWAP1 DUP3 SWAP1 PUSH32 0xE1032CC37AF020767FB800DF5603DE546DBFB9FE6EFD5A435F5654EBEC1E4302 SWAP1 PUSH1 0xA0 ADD PUSH1 0x40 MLOAD DUP1 SWAP2 SUB SWAP1 LOG3 SWAP3 POP POP POP PUSH2 0x947 PUSH1 0x1 PUSH1 0x0 SSTORE JUMP JUMPDEST SWAP7 SWAP6 POP POP POP POP POP POP JUMP JUMPDEST PUSH2 0x959 PUSH2 0x1214 JUMP JUMPDEST PUSH32 0x0 PUSH1 0x1 PUSH1 0x1 PUSH1 0xA0 SHL SUB AND PUSH4 0xA9059CBB PUSH2 0x99A PUSH1 0x1 SLOAD PUSH1 0x1 PUSH1 0x1 PUSH1 0xA0 SHL SUB AND SWAP1 JUMP JUMPDEST PUSH1 0x40 MLOAD PUSH1 0x1 PUSH1 0x1 PUSH1 0xE0 SHL SUB NOT PUSH1 0xE0 DUP5 SWAP1 SHL AND DUP2 MSTORE PUSH1 0x1 PUSH1 0x1 PUSH1 0xA0 SHL SUB SWAP1 SWAP2 AND PUSH1 0x4 DUP3 ADD MSTORE PUSH1 0x24 DUP2 ADD DUP5 SWAP1 MSTORE PUSH1 0x44 ADD PUSH1 0x20 PUSH1 0x40 MLOAD DUP1 DUP4 SUB DUP2 PUSH1 0x0 DUP8 GAS CALL ISZERO DUP1 ISZERO PUSH2 0x9E7 JUMPI RETURNDATASIZE PUSH1 0x0 DUP1 RETURNDATACOPY RETURNDATASIZE PUSH1 0x0 REVERT JUMPDEST POP POP POP POP PUSH1 0x40 MLOAD RETURNDATASIZE PUSH1 0x1F NOT PUSH1 0x1F DUP3 ADD AND DUP3 ADD DUP1 PUSH1 0x40 MSTORE POP DUP2 ADD SWAP1 PUSH2 0xA0B SWAP2 SWAP1 PUSH2 0x14B2 JUMP JUMPDEST PUSH2 0xA4B JUMPI PUSH1 0x40 MLOAD PUSH3 0x461BCD PUSH1 0xE5 SHL DUP2 MSTORE PUSH1 0x20 PUSH1 0x4 DUP3 ADD MSTORE PUSH1 0x11 PUSH1 0x24 DUP3 ADD MSTORE PUSH17 0x15DA5D1A191C985DD85B0819985A5B1959 PUSH1 0x7A SHL PUSH1 0x44 DUP3 ADD MSTORE PUSH1 0x64 ADD PUSH2 0x376 JUMP JUMPDEST POP JUMP JUMPDEST PUSH2 0xA56 PUSH2 0x1214 JUMP JUMPDEST PUSH2 0xA60 PUSH1 0x0 PUSH2 0x1241 JUMP JUMPDEST JUMP JUMPDEST PUSH2 0xA6A PUSH2 0x11EA JUMP JUMPDEST PUSH1 0x0 DUP2 DUP2 MSTORE PUSH1 0x3 PUSH1 0x20 MSTORE PUSH1 0x40 SWAP1 KECCAK256 PUSH1 0x7 DUP2 ADD SLOAD PUSH1 0xFF AND PUSH2 0xABE JUMPI PUSH1 0x40 MLOAD PUSH3 0x461BCD PUSH1 0xE5 SHL DUP2 MSTORE PUSH1 0x20 PUSH1 0x4 DUP3 ADD MSTORE PUSH1 0xF PUSH1 0x24 DUP3 ADD MSTORE PUSH15 0x4C6F616E206E6F7420616374697665 PUSH1 0x88 SHL PUSH1 0x44 DUP3 ADD MSTORE PUSH1 0x64 ADD PUSH2 0x376 JUMP JUMPDEST DUP1 SLOAD PUSH1 0x1 PUSH1 0x1 PUSH1 0xA0 SHL SUB AND CALLER EQ PUSH2 0xB06 JUMPI PUSH1 0x40 MLOAD PUSH3 0x461BCD PUSH1 0xE5 SHL DUP2 MSTORE PUSH1 0x20 PUSH1 0x4 DUP3 ADD MSTORE PUSH1 0xC PUSH1 0x24 DUP3 ADD MSTORE PUSH12 0x2737BA103137B93937BBB2B9 PUSH1 0xA1 SHL PUSH1 0x44 DUP3 ADD MSTORE PUSH1 0x64 ADD PUSH2 0x376 JUMP JUMPDEST PUSH1 0x0 PUSH2 0xB11 DUP4 PUSH2 0xC39 JUMP JUMPDEST PUSH1 0x40 MLOAD PUSH4 0x23B872DD PUSH1 0xE0 SHL DUP2 MSTORE CALLER PUSH1 0x4 DUP3 ADD MSTORE ADDRESS PUSH1 0x24 DUP3 ADD MSTORE PUSH1 0x44 DUP2 ADD DUP3 SWAP1 MSTORE SWAP1 SWAP2 POP PUSH32 0x0 PUSH1 0x1 PUSH1 0x1 PUSH1 0xA0 SHL SUB AND SWAP1 PUSH4 0x23B872DD SWAP1 PUSH1 0x64 ADD PUSH1 0x20 PUSH1 0x40 MLOAD DUP1 DUP4 SUB DUP2 PUSH1 0x0 DUP8 GAS CALL ISZERO DUP1 ISZERO PUSH2 0xB87 JUMPI RETURNDATASIZE PUSH1 0x0 DUP1 RETURNDATACOPY RETURNDATASIZE PUSH1 0x0 REVERT JUMPDEST POP POP POP POP PUSH1 0x40 MLOAD RETURNDATASIZE PUSH1 0x1F NOT PUSH1 0x1F DUP3 ADD AND DUP3 ADD DUP1 PUSH1 0x40 MSTORE POP DUP2 ADD SWAP1 PUSH2 0xBAB SWAP2 SWAP1 PUSH2 0x14B2 JUMP JUMPDEST PUSH2 0xBEA JUMPI PUSH1 0x40 MLOAD PUSH3 0x461BCD PUSH1 0xE5 SHL DUP2 MSTORE PUSH1 0x20 PUSH1 0x4 DUP3 ADD MSTORE PUSH1 0x10 PUSH1 0x24 DUP3 ADD MSTORE PUSH16 0x14995C185E5B595B9D0819985A5B1959 PUSH1 0x82 SHL PUSH1 0x44 DUP3 ADD MSTORE PUSH1 0x64 ADD PUSH2 0x376 JUMP JUMPDEST PUSH1 0x7 DUP3 ADD DUP1 SLOAD PUSH1 0xFF NOT AND SWAP1 SSTORE PUSH1 0x40 MLOAD DUP2 DUP2 MSTORE CALLER SWAP1 DUP5 SWAP1 PUSH32 0x512D3E65B3E58C2187BB1872AA435DBA5BD09C1C03823BA56AB70AAC411E4A21 SWAP1 PUSH1 0x20 ADD PUSH1 0x40 MLOAD DUP1 SWAP2 SUB SWAP1 LOG3 POP POP PUSH2 0xA4B PUSH1 0x1 PUSH1 0x0 SSTORE JUMP JUMPDEST PUSH1 0x0 DUP2 DUP2 MSTORE PUSH1 0x3 PUSH1 0x20 DUP2 DUP2 MSTORE PUSH1 0x40 DUP1 DUP5 KECCAK256 DUP2 MLOAD PUSH2 0x120 DUP2 ADD DUP4 MSTORE DUP2 SLOAD PUSH1 0x1 PUSH1 0x1 PUSH1 0xA0 SHL SUB SWAP1 DUP2 AND DUP3 MSTORE PUSH1 0x1 DUP4 ADD SLOAD AND SWAP4 DUP2 ADD SWAP4 SWAP1 SWAP4 MSTORE PUSH1 0x2 DUP2 ADD SLOAD SWAP2 DUP4 ADD SWAP2 SWAP1 SWAP2 MSTORE SWAP2 DUP3 ADD SLOAD PUSH1 0x60 DUP3 ADD MSTORE PUSH1 0x4 DUP3 ADD SLOAD PUSH1 0x80 DUP3 ADD MSTORE PUSH1 0x5 DUP3 ADD SLOAD PUSH1 0xA0 DUP3 ADD MSTORE PUSH1 0x6 DUP3 ADD SLOAD PUSH1 0xC0 DUP3 ADD MSTORE PUSH1 0x7 DUP3 ADD SLOAD PUSH1 0xFF AND ISZERO ISZERO PUSH1 0xE0 DUP3 ADD DUP2 SWAP1 MSTORE PUSH1 0x8 SWAP1 SWAP3 ADD SLOAD PUSH2 0x100 DUP3 ADD MSTORE SWAP1 PUSH2 0xCCD JUMPI POP PUSH1 0x0 SWAP3 SWAP2 POP POP JUMP JUMPDEST PUSH1 0x0 DUP2 PUSH1 0xA0 ADD MLOAD TIMESTAMP PUSH2 0xCDF SWAP2 SWAP1 PUSH2 0x14ED JUMP JUMPDEST SWAP1 POP DUP2 PUSH1 0xC0 ADD MLOAD DUP2 GT ISZERO PUSH2 0xCF4 JUMPI POP PUSH1 0xC0 DUP2 ADD MLOAD JUMPDEST PUSH1 0x0 PUSH2 0xD06 PUSH2 0x2710 PUSH4 0x1E13380 PUSH2 0x1456 JUMP JUMPDEST DUP3 DUP5 PUSH1 0x80 ADD MLOAD DUP6 PUSH1 0x60 ADD MLOAD PUSH2 0xD1B SWAP2 SWAP1 PUSH2 0x1456 JUMP JUMPDEST PUSH2 0xD25 SWAP2 SWAP1 PUSH2 0x1456 JUMP JUMPDEST PUSH2 0xD2F SWAP2 SWAP1 PUSH2 0x1473 JUMP JUMPDEST SWAP1 POP DUP1 DUP4 PUSH1 0x60 ADD MLOAD PUSH2 0xD41 SWAP2 SWAP1 PUSH2 0x1500 JUMP JUMPDEST SWAP6 SWAP5 POP POP POP POP POP JUMP JUMPDEST PUSH2 0xD52 PUSH2 0x11EA JUMP JUMPDEST PUSH1 0x0 DUP2 DUP2 MSTORE PUSH1 0x3 PUSH1 0x20 MSTORE PUSH1 0x40 SWAP1 KECCAK256 PUSH1 0x7 DUP2 ADD SLOAD PUSH1 0xFF AND PUSH2 0xDA6 JUMPI PUSH1 0x40 MLOAD PUSH3 0x461BCD PUSH1 0xE5 SHL DUP2 MSTORE PUSH1 0x20 PUSH1 0x4 DUP3 ADD MSTORE PUSH1 0xF PUSH1 0x24 DUP3 ADD MSTORE PUSH15 0x4C6F616E206E6F7420616374697665 PUSH1 0x88 SHL PUSH1 0x44 DUP3 ADD MSTORE PUSH1 0x64 ADD PUSH2 0x376 JUMP JUMPDEST DUP1 PUSH1 0x6 ADD SLOAD DUP2 PUSH1 0x5 ADD SLOAD PUSH2 0xDBA SWAP2 SWAP1 PUSH2 0x1500 JUMP JUMPDEST TIMESTAMP GT PUSH2 0xDFB JUMPI PUSH1 0x40 MLOAD PUSH3 0x461BCD PUSH1 0xE5 SHL DUP2 MSTORE PUSH1 0x20 PUSH1 0x4 DUP3 ADD MSTORE PUSH1 0x10 PUSH1 0x24 DUP3 ADD MSTORE PUSH16 0x131BD85B881B9BDD08195E1C1A5C9959 PUSH1 0x82 SHL PUSH1 0x44 DUP3 ADD MSTORE PUSH1 0x64 ADD PUSH2 0x376 JUMP JUMPDEST PUSH1 0x1 DUP2 ADD SLOAD PUSH1 0x2 DUP3 ADD SLOAD PUSH1 0x40 MLOAD PUSH4 0x20604BF PUSH1 0xE2 SHL DUP2 MSTORE PUSH1 0x4 DUP2 ADD SWAP2 SWAP1 SWAP2 MSTORE PUSH1 0x0 SWAP2 PUSH1 0x1 PUSH1 0x1 PUSH1 0xA0 SHL SUB AND SWAP1 PUSH4 0x81812FC SWAP1 PUSH1 0x24 ADD PUSH1 0x20 PUSH1 0x40 MLOAD DUP1 DUP4 SUB DUP2 DUP7 GAS STATICCALL ISZERO DUP1 ISZERO PUSH2 0xE4D JUMPI RETURNDATASIZE PUSH1 0x0 DUP1 RETURNDATACOPY RETURNDATASIZE PUSH1 0x0 REVERT JUMPDEST POP POP POP POP PUSH1 0x40 MLOAD RETURNDATASIZE PUSH1 0x1F NOT PUSH1 0x1F DUP3 ADD AND DUP3 ADD DUP1 PUSH1 0x40 MSTORE POP DUP2 ADD SWAP1 PUSH2 0xE71 SWAP2 SWAP1 PUSH2 0x1495 JUMP JUMPDEST PUSH1 0x1 DUP4 ADD SLOAD PUSH1 0x2 DUP5 ADD SLOAD PUSH1 0x40 MLOAD PUSH4 0x31A9108F PUSH1 0xE1 SHL DUP2 MSTORE SWAP3 SWAP4 POP PUSH1 0x0 SWAP3 PUSH1 0x1 PUSH1 0x1 PUSH1 0xA0 SHL SUB SWAP1 SWAP3 AND SWAP2 PUSH4 0x6352211E SWAP2 PUSH2 0xEB0 SWAP2 PUSH1 0x4 ADD SWAP1 DUP2 MSTORE PUSH1 0x20 ADD SWAP1 JUMP JUMPDEST PUSH1 0x20 PUSH1 0x40 MLOAD DUP1 DUP4 SUB DUP2 DUP7 GAS STATICCALL ISZERO DUP1 ISZERO PUSH2 0xECD JUMPI RETURNDATASIZE PUSH1 0x0 DUP1 RETURNDATACOPY RETURNDATASIZE PUSH1 0x0 REVERT JUMPDEST POP POP POP POP PUSH1 0x40 MLOAD RETURNDATASIZE PUSH1 0x1F NOT PUSH1 0x1F DUP3 ADD AND DUP3 ADD DUP1 PUSH1 0x40 MSTORE POP DUP2 ADD SWAP1 PUSH2 0xEF1 SWAP2 SWAP1 PUSH2 0x1495 JUMP JUMPDEST PUSH1 0x1 DUP5 ADD SLOAD PUSH1 0x40 MLOAD PUSH4 0xE985E9C5 PUSH1 0xE0 SHL DUP2 MSTORE PUSH1 0x1 PUSH1 0x1 PUSH1 0xA0 SHL SUB DUP1 DUP5 AND PUSH1 0x4 DUP4 ADD MSTORE ADDRESS PUSH1 0x24 DUP4 ADD MSTORE SWAP3 SWAP4 POP PUSH1 0x0 SWAP3 SWAP1 SWAP2 AND SWAP1 PUSH4 0xE985E9C5 SWAP1 PUSH1 0x44 ADD PUSH1 0x20 PUSH1 0x40 MLOAD DUP1 DUP4 SUB DUP2 DUP7 GAS STATICCALL ISZERO DUP1 ISZERO PUSH2 0xF49 JUMPI RETURNDATASIZE PUSH1 0x0 DUP1 RETURNDATACOPY RETURNDATASIZE PUSH1 0x0 REVERT JUMPDEST POP POP POP POP PUSH1 0x40 MLOAD RETURNDATASIZE PUSH1 0x1F NOT PUSH1 0x1F DUP3 ADD AND DUP3 ADD DUP1 PUSH1 0x40 MSTORE POP DUP2 ADD SWAP1 PUSH2 0xF6D SWAP2 SWAP1 PUSH2 0x14B2 JUMP JUMPDEST SWAP1 POP PUSH1 0x1 PUSH1 0x1 PUSH1 0xA0 SHL SUB DUP4 AND ADDRESS EQ DUP1 PUSH2 0xF83 JUMPI POP DUP1 JUMPDEST PUSH2 0xFDB JUMPI PUSH1 0x40 MLOAD PUSH3 0x461BCD PUSH1 0xE5 SHL DUP2 MSTORE PUSH1 0x20 PUSH1 0x4 DUP3 ADD MSTORE PUSH1 0x23 PUSH1 0x24 DUP3 ADD MSTORE PUSH32 0x417070726F76616C207265766F6B6564202D2063616E6E6F74206C6971756964 PUSH1 0x44 DUP3 ADD MSTORE PUSH3 0x617465 PUSH1 0xE8 SHL PUSH1 0x64 DUP3 ADD MSTORE PUSH1 0x84 ADD PUSH2 0x376 JUMP JUMPDEST PUSH1 0x1 DUP5 ADD SLOAD PUSH1 0x1 PUSH1 0x1 PUSH1 0xA0 SHL SUB AND PUSH4 0x23B872DD DUP4 PUSH2 0x1001 PUSH1 0x1 SLOAD PUSH1 0x1 PUSH1 0x1 PUSH1 0xA0 SHL SUB AND SWAP1 JUMP JUMPDEST PUSH1 0x2 DUP9 ADD SLOAD PUSH1 0x40 MLOAD PUSH1 0x1 PUSH1 0x1 PUSH1 0xE0 SHL SUB NOT PUSH1 0xE0 DUP7 SWAP1 SHL AND DUP2 MSTORE PUSH1 0x1 PUSH1 0x1 PUSH1 0xA0 SHL SUB SWAP4 DUP5 AND PUSH1 0x4 DUP3 ADD MSTORE SWAP3 SWAP1 SWAP2 AND PUSH1 0x24 DUP4 ADD MSTORE PUSH1 0x44 DUP3 ADD MSTORE PUSH1 0x64 ADD PUSH1 0x0 PUSH1 0x40 MLOAD DUP1 DUP4 SUB DUP2 PUSH1 0x0 DUP8 DUP1 EXTCODESIZE ISZERO DUP1 ISZERO PUSH2 0x1055 JUMPI PUSH1 0x0 DUP1 REVERT JUMPDEST POP GAS CALL SWAP3 POP POP POP DUP1 ISZERO PUSH2 0x1066 JUMPI POP PUSH1 0x1 JUMPDEST PUSH2 0x10CB JUMPI PUSH1 0x40 MLOAD PUSH3 0x461BCD PUSH1 0xE5 SHL DUP2 MSTORE PUSH1 0x20 PUSH1 0x4 DUP3 ADD MSTORE PUSH1 0x30 PUSH1 0x24 DUP3 ADD MSTORE PUSH32 0x4E4654207472616E736665722072657374726963746564202D20636F6E746163 PUSH1 0x44 DUP3 ADD MSTORE PUSH16 0x3A10383937BA37B1B7B61030B236B4B7 PUSH1 0x81 SHL PUSH1 0x64 DUP3 ADD MSTORE PUSH1 0x84 ADD PUSH2 0x376 JUMP JUMPDEST PUSH1 0x7 DUP5 ADD DUP1 SLOAD PUSH1 0xFF NOT AND SWAP1 SSTORE PUSH1 0x40 MLOAD CALLER SWAP1 DUP7 SWAP1 PUSH32 0x73DE9ACC561F27528AB0A3B5DD63FEFB4E59F95575891299A6F862A787798176 SWAP1 PUSH1 0x0 SWAP1 LOG3 POP POP POP POP PUSH2 0xA4B PUSH1 0x1 PUSH1 0x0 SSTORE JUMP JUMPDEST PUSH1 0x4 PUSH1 0x20 MSTORE DUP2 PUSH1 0x0 MSTORE PUSH1 0x40 PUSH1 0x0 KECCAK256 DUP2 DUP2 SLOAD DUP2 LT PUSH2 0x112E JUMPI PUSH1 0x0 DUP1 REVERT JUMPDEST SWAP1 PUSH1 0x0 MSTORE PUSH1 0x20 PUSH1 0x0 KECCAK256 ADD PUSH1 0x0 SWAP2 POP SWAP2 POP POP SLOAD DUP2 JUMP JUMPDEST PUSH1 0x1 PUSH1 0x1 PUSH1 0xA0 SHL SUB DUP2 AND PUSH1 0x0 SWAP1 DUP2 MSTORE PUSH1 0x4 PUSH1 0x20 SWAP1 DUP2 MSTORE PUSH1 0x40 SWAP2 DUP3 SWAP1 KECCAK256 DUP1 SLOAD DUP4 MLOAD DUP2 DUP5 MUL DUP2 ADD DUP5 ADD SWAP1 SWAP5 MSTORE DUP1 DUP5 MSTORE PUSH1 0x60 SWAP4 SWAP3 DUP4 ADD DUP3 DUP3 DUP1 ISZERO PUSH2 0x11A3 JUMPI PUSH1 0x20 MUL DUP3 ADD SWAP2 SWAP1 PUSH1 0x0 MSTORE PUSH1 0x20 PUSH1 0x0 KECCAK256 SWAP1 JUMPDEST DUP2 SLOAD DUP2 MSTORE PUSH1 0x20 ADD SWAP1 PUSH1 0x1 ADD SWAP1 DUP1 DUP4 GT PUSH2 0x118F JUMPI JUMPDEST POP POP POP POP POP SWAP1 POP SWAP2 SWAP1 POP JUMP JUMPDEST PUSH2 0x11B7 PUSH2 0x1214 JUMP JUMPDEST PUSH1 0x1 PUSH1 0x1 PUSH1 0xA0 SHL SUB DUP2 AND PUSH2 0x11E1 JUMPI PUSH1 0x40 MLOAD PUSH4 0x1E4FBDF7 PUSH1 0xE0 SHL DUP2 MSTORE PUSH1 0x0 PUSH1 0x4 DUP3 ADD MSTORE PUSH1 0x24 ADD PUSH2 0x376 JUMP JUMPDEST PUSH2 0xA4B DUP2 PUSH2 0x1241 JUMP JUMPDEST PUSH1 0x2 PUSH1 0x0 SLOAD SUB PUSH2 0x120D JUMPI PUSH1 0x40 MLOAD PUSH4 0x3EE5AEB5 PUSH1 0xE0 SHL DUP2 MSTORE PUSH1 0x4 ADD PUSH1 0x40 MLOAD DUP1 SWAP2 SUB SWAP1 REVERT JUMPDEST PUSH1 0x2 PUSH1 0x0 SSTORE JUMP JUMPDEST PUSH1 0x1 SLOAD PUSH1 0x1 PUSH1 0x1 PUSH1 0xA0 SHL SUB AND CALLER EQ PUSH2 0xA60 JUMPI PUSH1 0x40 MLOAD PUSH4 0x118CDAA7 PUSH1 0xE0 SHL DUP2 MSTORE CALLER PUSH1 0x4 DUP3 ADD MSTORE PUSH1 0x24 ADD PUSH2 0x376 JUMP JUMPDEST PUSH1 0x1 DUP1 SLOAD PUSH1 0x1 PUSH1 0x1 PUSH1 0xA0 SHL SUB DUP4 DUP2 AND PUSH1 0x1 PUSH1 0x1 PUSH1 0xA0 SHL SUB NOT DUP4 AND DUP2 OR SWAP1 SWAP4 SSTORE PUSH1 0x40 MLOAD SWAP2 AND SWAP2 SWAP1 DUP3 SWAP1 PUSH32 0x8BE0079C531659141344CD1FD0A4F28419497F9722A3DAAFE3B4186F6B6457E0 SWAP1 PUSH1 0x0 SWAP1 LOG3 POP POP JUMP JUMPDEST PUSH1 0x1 PUSH1 0x1 PUSH1 0xA0 SHL SUB DUP2 AND DUP2 EQ PUSH2 0xA4B JUMPI PUSH1 0x0 DUP1 REVERT JUMPDEST PUSH1 0x0 DUP1 PUSH1 0x0 DUP1 PUSH1 0x0 DUP1 PUSH1 0xC0 DUP8 DUP10 SUB SLT ISZERO PUSH2 0x12C1 JUMPI PUSH1 0x0 DUP1 REVERT JUMPDEST DUP7 CALLDATALOAD PUSH2 0x12CC DUP2 PUSH2 0x1293 JUMP JUMPDEST SWAP9 PUSH1 0x20 DUP9 ADD CALLDATALOAD SWAP9 POP PUSH1 0x40 DUP9 ADD CALLDATALOAD SWAP8 PUSH1 0x60 DUP2 ADD CALLDATALOAD SWAP8 POP PUSH1 0x80 DUP2 ADD CALLDATALOAD SWAP7 POP PUSH1 0xA0 ADD CALLDATALOAD SWAP5 POP SWAP3 POP POP POP JUMP JUMPDEST PUSH1 0x0 DUP1 PUSH1 0x0 DUP1 PUSH1 0x0 PUSH1 0x80 DUP7 DUP9 SUB SLT ISZERO PUSH2 0x130C JUMPI PUSH1 0x0 DUP1 REVERT JUMPDEST DUP6 CALLDATALOAD PUSH2 0x1317 DUP2 PUSH2 0x1293 JUMP JUMPDEST SWAP5 POP PUSH1 0x20 DUP7 ADD CALLDATALOAD PUSH2 0x1327 DUP2 PUSH2 0x1293 JUMP JUMPDEST SWAP4 POP PUSH1 0x40 DUP7 ADD CALLDATALOAD SWAP3 POP PUSH1 0x60 DUP7 ADD CALLDATALOAD PUSH8 0xFFFFFFFFFFFFFFFF DUP1 DUP3 GT ISZERO PUSH2 0x134B JUMPI PUSH1 0x0 DUP1 REVERT JUMPDEST DUP2 DUP9 ADD SWAP2 POP DUP9 PUSH1 0x1F DUP4 ADD SLT PUSH2 0x135F JUMPI PUSH1 0x0 DUP1 REVERT JUMPDEST DUP2 CALLDATALOAD DUP2 DUP2 GT ISZERO PUSH2 0x136E JUMPI PUSH1 0x0 DUP1 REVERT JUMPDEST DUP10 PUSH1 0x20 DUP3 DUP6 ADD ADD GT ISZERO PUSH2 0x1380 JUMPI PUSH1 0x0 DUP1 REVERT JUMPDEST SWAP7 SWAP10 SWAP6 SWAP9 POP SWAP4 SWAP7 POP PUSH1 0x20 ADD SWAP5 SWAP4 SWAP3 POP POP POP JUMP JUMPDEST PUSH1 0x0 PUSH1 0x20 DUP3 DUP5 SUB SLT ISZERO PUSH2 0x13A5 JUMPI PUSH1 0x0 DUP1 REVERT JUMPDEST POP CALLDATALOAD SWAP2 SWAP1 POP JUMP JUMPDEST PUSH1 0x0 DUP1 PUSH1 0x40 DUP4 DUP6 SUB SLT ISZERO PUSH2 0x13BF JUMPI PUSH1 0x0 DUP1 REVERT JUMPDEST DUP3 CALLDATALOAD PUSH2 0x13CA DUP2 PUSH2 0x1293 JUMP JUMPDEST SWAP5 PUSH1 0x20 SWAP4 SWAP1 SWAP4 ADD CALLDATALOAD SWAP4 POP POP POP JUMP JUMPDEST PUSH1 0x0 PUSH1 0x20 DUP3 DUP5 SUB SLT ISZERO PUSH2 0x13EA JUMPI PUSH1 0x0 DUP1 REVERT JUMPDEST DUP2 CALLDATALOAD PUSH2 0x13F5 DUP2 PUSH2 0x1293 JUMP JUMPDEST SWAP4 SWAP3 POP POP POP JUMP JUMPDEST PUSH1 0x20 DUP1 DUP3 MSTORE DUP3 MLOAD DUP3 DUP3 ADD DUP2 SWAP1 MSTORE PUSH1 0x0 SWAP2 SWAP1 DUP5 DUP3 ADD SWAP1 PUSH1 0x40 DUP6 ADD SWAP1 DUP5 JUMPDEST DUP2 DUP2 LT ISZERO PUSH2 0x1434 JUMPI DUP4 MLOAD DUP4 MSTORE SWAP3 DUP5 ADD SWAP3 SWAP2 DUP5 ADD SWAP2 PUSH1 0x1 ADD PUSH2 0x1418 JUMP JUMPDEST POP SWAP1 SWAP7 SWAP6 POP POP POP POP POP POP JUMP JUMPDEST PUSH4 0x4E487B71 PUSH1 0xE0 SHL PUSH1 0x0 MSTORE PUSH1 0x11 PUSH1 0x4 MSTORE PUSH1 0x24 PUSH1 0x0 REVERT JUMPDEST DUP1 DUP3 MUL DUP2 ISZERO DUP3 DUP3 DIV DUP5 EQ OR PUSH2 0x146D JUMPI PUSH2 0x146D PUSH2 0x1440 JUMP JUMPDEST SWAP3 SWAP2 POP POP JUMP JUMPDEST PUSH1 0x0 DUP3 PUSH2 0x1490 JUMPI PUSH4 0x4E487B71 PUSH1 0xE0 SHL PUSH1 0x0 MSTORE PUSH1 0x12 PUSH1 0x4 MSTORE PUSH1 0x24 PUSH1 0x0 REVERT JUMPDEST POP DIV SWAP1 JUMP JUMPDEST PUSH1 0x0 PUSH1 0x20 DUP3 DUP5 SUB SLT ISZERO PUSH2 0x14A7 JUMPI PUSH1 0x0 DUP1 REVERT JUMPDEST DUP2 MLOAD PUSH2 0x13F5 DUP2 PUSH2 0x1293 JUMP JUMPDEST PUSH1 0x0 PUSH1 0x20 DUP3 DUP5 SUB SLT ISZERO PUSH2 0x14C4 JUMPI PUSH1 0x0 DUP1 REVERT JUMPDEST DUP2 MLOAD DUP1 ISZERO ISZERO DUP2 EQ PUSH2 0x13F5 JUMPI PUSH1 0x0 DUP1 REVERT JUMPDEST PUSH1 0x0 PUSH1 0x1 DUP3 ADD PUSH2 0x14E6 JUMPI PUSH2 0x14E6 PUSH2 0x1440 JUMP JUMPDEST POP PUSH1 0x1 ADD SWAP1 JUMP JUMPDEST DUP2 DUP2 SUB DUP2 DUP2 GT ISZERO PUSH2 0x146D JUMPI PUSH2 0x146D PUSH2 0x1440 JUMP JUMPDEST DUP1 DUP3 ADD DUP1 DUP3 GT ISZERO PUSH2 0x146D JUMPI PUSH2 0x146D PUSH2 0x1440 JUMP INVALID LOG2 PUSH5 0x6970667358 0x22 SLT KECCAK256 DUP7 PUSH27 0x85F39F211E5D023D1157426E398EFD7DEBEA669DF108DE0F8ACC8C SWAP4 LT 0xC5 PUSH5 0x736F6C6343 STOP ADDMOD XOR STOP CALLER "},"methodIdentifiers":{"BASIS_POINTS()":"e1f1c4a7","LIQUIDATION_THRESHOLD()":"90a8ae9b","borrowerLoans(address,uint256)":"e3ed1902","calculateRepaymentAmount(uint256)":"b1197239","createLoan(address,uint256,uint256,uint256,uint256,uint256)":"1079f7af","getBorrowerLoans(address)":"eee8b7ff","liquidateLoan(uint256)":"ccdd9f5d","loanCounter()":"34d9289e","loans(uint256)":"e1ec3c68","onERC721Received(address,address,uint256,bytes)":"150b7a02","owner()":"8da5cb5b","renounceOwnership()":"715018a6","repayLoan(uint256)":"ab7b1c89","stablecoin()":"e9cbd822","transferOwnership(address)":"f2fde38b","withdrawFunds(uint256)":"155dd5ee"}}}}}