{
  "_format": "hh-sol-artifact-1",
  "contractName": "DomainLeasing",
  "sourceName": "contracts/DomainLeasing.sol",
  "abi": [
    {
      "inputs": [
        {
          "internalType": "address",
          "name": "_paymentToken",
          "type": "address"
        }
      ],
      "stateMutability": "nonpayable",
      "type": "constructor"
    },
    {
      "inputs": [],
      "name": "ReentrancyGuardReentrantCall",
      "type": "error"
    },
    {
      "anonymous": false,
      "inputs": [
        {
          "indexed": true,
          "internalType": "uint256",
          "name": "leaseId",
          "type": "uint256"
        },
        {
          "indexed": true,
          "internalType": "address",
          "name": "lessor",
          "type": "address"
        },
        {
          "indexed": true,
          "internalType": "address",
          "name": "lessee",
          "type": "address"
        },
        {
          "indexed": false,
          "internalType": "address",
          "name": "syntheticToken",
          "type": "address"
        },
        {
          "indexed": false,
          "internalType": "uint256",
          "name": "tokenId",
          "type": "uint256"
        },
        {
          "indexed": false,
          "internalType": "enum DomainLeasing.PermissionType",
          "name": "permissionType",
          "type": "uint8"
        },
        {
          "indexed": false,
          "internalType": "uint256",
          "name": "rentalPrice",
          "type": "uint256"
        },
        {
          "indexed": false,
          "internalType": "uint256",
          "name": "duration",
          "type": "uint256"
        }
      ],
      "name": "LeaseCreated",
      "type": "event"
    },
    {
      "anonymous": false,
      "inputs": [
        {
          "indexed": true,
          "internalType": "uint256",
          "name": "leaseId",
          "type": "uint256"
        }
      ],
      "name": "LeaseEnded",
      "type": "event"
    },
    {
      "anonymous": false,
      "inputs": [
        {
          "indexed": true,
          "internalType": "uint256",
          "name": "leaseId",
          "type": "uint256"
        },
        {
          "indexed": false,
          "internalType": "uint256",
          "name": "newEndTime",
          "type": "uint256"
        }
      ],
      "name": "LeaseExtended",
      "type": "event"
    },
    {
      "inputs": [],
      "name": "BASIS_POINTS",
      "outputs": [
        {
          "internalType": "uint256",
          "name": "",
          "type": "uint256"
        }
      ],
      "stateMutability": "view",
      "type": "function"
    },
    {
      "inputs": [],
      "name": "PLATFORM_FEE_BPS",
      "outputs": [
        {
          "internalType": "uint256",
          "name": "",
          "type": "uint256"
        }
      ],
      "stateMutability": "view",
      "type": "function"
    },
    {
      "inputs": [
        {
          "internalType": "uint256",
          "name": "leaseId",
          "type": "uint256"
        }
      ],
      "name": "acceptLease",
      "outputs": [],
      "stateMutability": "nonpayable",
      "type": "function"
    },
    {
      "inputs": [
        {
          "internalType": "address",
          "name": "syntheticToken",
          "type": "address"
        },
        {
          "internalType": "uint256",
          "name": "tokenId",
          "type": "uint256"
        },
        {
          "internalType": "enum DomainLeasing.PermissionType",
          "name": "permissionType",
          "type": "uint8"
        },
        {
          "internalType": "uint256",
          "name": "rentalPrice",
          "type": "uint256"
        },
        {
          "internalType": "uint256",
          "name": "duration",
          "type": "uint256"
        },
        {
          "internalType": "address",
          "name": "lessee",
          "type": "address"
        }
      ],
      "name": "createLease",
      "outputs": [
        {
          "internalType": "uint256",
          "name": "",
          "type": "uint256"
        }
      ],
      "stateMutability": "nonpayable",
      "type": "function"
    },
    {
      "inputs": [
        {
          "internalType": "uint256",
          "name": "leaseId",
          "type": "uint256"
        }
      ],
      "name": "endLease",
      "outputs": [],
      "stateMutability": "nonpayable",
      "type": "function"
    },
    {
      "inputs": [
        {
          "internalType": "uint256",
          "name": "leaseId",
          "type": "uint256"
        },
        {
          "internalType": "uint256",
          "name": "additionalDuration",
          "type": "uint256"
        },
        {
          "internalType": "uint256",
          "name": "additionalPayment",
          "type": "uint256"
        }
      ],
      "name": "extendLease",
      "outputs": [],
      "stateMutability": "nonpayable",
      "type": "function"
    },
    {
      "inputs": [
        {
          "internalType": "address",
          "name": "lessee",
          "type": "address"
        }
      ],
      "name": "getLesseeLeases",
      "outputs": [
        {
          "internalType": "uint256[]",
          "name": "",
          "type": "uint256[]"
        }
      ],
      "stateMutability": "view",
      "type": "function"
    },
    {
      "inputs": [
        {
          "internalType": "address",
          "name": "lessor",
          "type": "address"
        }
      ],
      "name": "getLessorLeases",
      "outputs": [
        {
          "internalType": "uint256[]",
          "name": "",
          "type": "uint256[]"
        }
      ],
      "stateMutability": "view",
      "type": "function"
    },
    {
      "inputs": [
        {
          "internalType": "uint256",
          "name": "leaseId",
          "type": "uint256"
        }
      ],
      "name": "isLeaseExpired",
      "outputs": [
        {
          "internalType": "bool",
          "name": "",
          "type": "bool"
        }
      ],
      "stateMutability": "view",
      "type": "function"
    },
    {
      "inputs": [],
      "name": "leaseCounter",
      "outputs": [
        {
          "internalType": "uint256",
          "name": "",
          "type": "uint256"
        }
      ],
      "stateMutability": "view",
      "type": "function"
    },
    {
      "inputs": [
        {
          "internalType": "uint256",
          "name": "",
          "type": "uint256"
        }
      ],
      "name": "leases",
      "outputs": [
        {
          "internalType": "address",
          "name": "lessor",
          "type": "address"
        },
        {
          "internalType": "address",
          "name": "lessee",
          "type": "address"
        },
        {
          "internalType": "address",
          "name": "syntheticToken",
          "type": "address"
        },
        {
          "internalType": "uint256",
          "name": "tokenId",
          "type": "uint256"
        },
        {
          "internalType": "enum DomainLeasing.PermissionType",
          "name": "permissionType",
          "type": "uint8"
        },
        {
          "internalType": "uint256",
          "name": "rentalPrice",
          "type": "uint256"
        },
        {
          "internalType": "uint256",
          "name": "startTime",
          "type": "uint256"
        },
        {
          "internalType": "uint256",
          "name": "duration",
          "type": "uint256"
        },
        {
          "internalType": "bool",
          "name": "active",
          "type": "bool"
        }
      ],
      "stateMutability": "view",
      "type": "function"
    },
    {
      "inputs": [
        {
          "internalType": "address",
          "name": "",
          "type": "address"
        },
        {
          "internalType": "uint256",
          "name": "",
          "type": "uint256"
        }
      ],
      "name": "lesseeLeases",
      "outputs": [
        {
          "internalType": "uint256",
          "name": "",
          "type": "uint256"
        }
      ],
      "stateMutability": "view",
      "type": "function"
    },
    {
      "inputs": [
        {
          "internalType": "address",
          "name": "",
          "type": "address"
        },
        {
          "internalType": "uint256",
          "name": "",
          "type": "uint256"
        }
      ],
      "name": "lessorLeases",
      "outputs": [
        {
          "internalType": "uint256",
          "name": "",
          "type": "uint256"
        }
      ],
      "stateMutability": "view",
      "type": "function"
    },
    {
      "inputs": [
        {
          "internalType": "address",
          "name": "",
          "type": "address"
        },
        {
          "internalType": "address",
          "name": "",
          "type": "address"
        },
        {
          "internalType": "uint256",
          "name": "",
          "type": "uint256"
        },
        {
          "internalType": "bytes",
          "name": "",
          "type": "bytes"
        }
      ],
      "name": "onERC721Received",
      "outputs": [
        {
          "internalType": "bytes4",
          "name": "",
          "type": "bytes4"
        }
      ],
      "stateMutability": "pure",
      "type": "function"
    },
    {
      "inputs": [],
      "name": "paymentToken",
      "outputs": [
        {
          "internalType": "contract IERC20",
          "name": "",
          "type": "address"
        }
      ],
      "stateMutability": "view",
      "type": "function"
    },
    {
      "inputs": [
        {
          "internalType": "address",
          "name": "recipient",
          "type": "address"
        },
        {
          "internalType": "uint256",
          "name": "amount",
          "type": "uint256"
        }
      ],
      "name": "withdrawFees",
      "outputs": [],
      "stateMutability": "nonpayable",
      "type": "function"
    }
  ],
  "bytecode": "0x60a060405234801561001057600080fd5b5060405161157f38038061157f83398101604081905261002f91610045565b60016000556001600160a01b0316608052610075565b60006020828403121561005757600080fd5b81516001600160a01b038116811461006e57600080fd5b9392505050565b6080516114cc6100b3600039600081816101a6015281816107510152818161082301528181610c8f01528181610e780152610f4a01526114cc6000f3fe608060405234801561001057600080fd5b50600436106101005760003560e01c80638927a10611610097578063ad3b1b4711610066578063ad3b1b47146102c7578063ca4ae71d146102da578063d609f88a146102ed578063e1f1c4a71461030057600080fd5b80638927a1061461020b57806391ef935c1461028e578063942e61a7146102a1578063aaa4d921146102b457600080fd5b806322d70504116100d357806322d705041461018c5780633013ce29146101a15780633201ad94146101e0578063539aa77f1461020357600080fd5b806304368923146101055780630716183e14610121578063150b7a021461013457806322858c1e1461016c575b600080fd5b61010e60015481565b6040519081526020015b60405180910390f35b61010e61012f36600461111a565b610309565b61015361014236600461117f565b630a85bd0160e11b95945050505050565b6040516001600160e01b03199091168152602001610118565b61017f61017a36600461121a565b6105fb565b604051610118919061123c565b61019f61019a366004611280565b610667565b005b6101c87f000000000000000000000000000000000000000000000000000000000000000081565b6040516001600160a01b039091168152602001610118565b6101f36101ee3660046112ac565b610954565b6040519015158152602001610118565b61010e60fa81565b6102796102193660046112ac565b60026020819052600091825260409091208054600182015492820154600383015460048401546005850154600686015460078701546008909701546001600160a01b03968716988716979690951695939460ff9384169492939192911689565b604051610118999897969594939291906112fd565b61019f61029c3660046112ac565b610a38565b61017f6102af36600461121a565b610bce565b61010e6102c236600461135b565b610c38565b61019f6102d536600461135b565b610c69565b61010e6102e836600461135b565b610d40565b61019f6102fb3660046112ac565b610d5c565b61010e61271081565b60006103136110cd565b600084116103685760405162461bcd60e51b815260206004820152601d60248201527f52656e74616c207072696365206d75737420626520706f73697469766500000060448201526064015b60405180910390fd5b62015180831015801561037f57506301e133808311155b6103be5760405162461bcd60e51b815260206004820152601060248201526f24b73b30b634b210323ab930ba34b7b760811b604482015260640161035f565b604051632142170760e11b81526001600160a01b038816906342842e0e906103ee90339030908b90600401611385565b600060405180830381600087803b15801561040857600080fd5b505af115801561041c573d6000803e3d6000fd5b50506001805460009350915082610432836113bf565b919050559050604051806101200160405280336001600160a01b03168152602001846001600160a01b03168152602001896001600160a01b03168152602001888152602001876003811115610489576104896112c5565b815260208082018890526000604080840182905260608085018a90526080948501839052868352600280855292829020865181546001600160a01b03199081166001600160a01b039283161783559588015160018084018054891692841692909217909155938801519482018054909616941693909317909355918401516003808301919091559284015160048201805492949193909260ff1916918490811115610536576105366112c5565b021790555060a0820151600582015560c0820151600682015560e08201516007820155610100909101516008909101805460ff191691151591909117905533600081815260036020908152604080832080546001810182559084529190922001839055516001600160a01b038516919083907f86cc1ea147d5ef48c78ad7086cbe3ea719c2415f15f4ba58a4daf56e64b60777906105dd908d908d908d908d908d906113d8565b60405180910390a490506105f16001600055565b9695505050505050565b6001600160a01b03811660009081526003602090815260409182902080548351818402810184019094528084526060939283018282801561065b57602002820191906000526020600020905b815481526020019060010190808311610647575b50505050509050919050565b61066f6110cd565b6000838152600260205260409020600881015460ff166106c45760405162461bcd60e51b815260206004820152601060248201526f4c65617365206e6f742061637469766560801b604482015260640161035f565b60018101546001600160a01b0316331461070d5760405162461bcd60e51b815260206004820152600a6024820152694e6f74206c657373656560b01b604482015260640161035f565b600061271061071d60fa8561140f565b610727919061142c565b90506000610735828561144e565b83546040516323b872dd60e01b81529192506001600160a01b037f00000000000000000000000000000000000000000000000000000000000000008116926323b872dd9261078c9233929116908690600401611385565b6020604051808303816000875af11580156107ab573d6000803e3d6000fd5b505050506040513d601f19601f820116820180604052508101906107cf9190611461565b61080c5760405162461bcd60e51b815260206004820152600e60248201526d14185e5b595b9d0819985a5b195960921b604482015260640161035f565b6040516323b872dd60e01b81526001600160a01b037f000000000000000000000000000000000000000000000000000000000000000016906323b872dd9061085c90339030908790600401611385565b6020604051808303816000875af115801561087b573d6000803e3d6000fd5b505050506040513d601f19601f8201168201806040525081019061089f9190611461565b6108e05760405162461bcd60e51b8152602060048201526012602482015271119959481c185e5b595b9d0819985a5b195960721b604482015260640161035f565b848360070160008282546108f49190611483565b92505081905550857fbe8718ddf8e3be9e92c7675f70838781862c60e726fc7ca7717ec53360e18299846007015485600601546109319190611483565b60405190815260200160405180910390a250505061094f6001600055565b505050565b600081815260026020818152604080842081516101208101835281546001600160a01b039081168252600183015481169482019490945293810154909216908301526003808201546060840152600482015484939291608084019160ff16908111156109c2576109c26112c5565b60038111156109d3576109d36112c5565b815260058201546020820152600682015460408201526007820154606082015260089091015460ff161515608090910152610100810151909150610a1a5750600092915050565b8060e001518160c00151610a2e9190611483565b4210159392505050565b610a406110cd565b6000818152600260205260409020600881015460ff16610a955760405162461bcd60e51b815260206004820152601060248201526f4c65617365206e6f742061637469766560801b604482015260640161035f565b60018101546001600160a01b0316331480610ab9575080546001600160a01b031633145b80610ad7575080600701548160060154610ad39190611483565b4210155b610b145760405162461bcd60e51b815260206004820152600e60248201526d139bdd08185d5d1a1bdc9a5e995960921b604482015260640161035f565b6002810154600182015482546003840154604051632142170760e11b81526001600160a01b03948516946342842e0e94610b579490821693911691600401611385565b600060405180830381600087803b158015610b7157600080fd5b505af1158015610b85573d6000803e3d6000fd5b50505060088201805460ff191690555060405182907f9bbc71338da3ea3da7477f5960427aa0fe6e98aeced78a369dd1b4357a50b9f190600090a250610bcb6001600055565b50565b6001600160a01b03811660009081526004602090815260409182902080548351818402810184019094528084526060939283018282801561065b57602002820191906000526020600020908154815260200190600101908083116106475750505050509050919050565b60046020528160005260406000208181548110610c5457600080fd5b90600052602060002001600091509150505481565b60405163a9059cbb60e01b81526001600160a01b038381166004830152602482018390527f0000000000000000000000000000000000000000000000000000000000000000169063a9059cbb906044016020604051808303816000875af1158015610cd8573d6000803e3d6000fd5b505050506040513d601f19601f82011682018060405250810190610cfc9190611461565b610d3c5760405162461bcd60e51b815260206004820152601160248201527015da5d1a191c985dd85b0819985a5b1959607a1b604482015260640161035f565b5050565b60036020528160005260406000208181548110610c5457600080fd5b610d646110cd565b6000818152600260205260409020600881015460ff1615610dbe5760405162461bcd60e51b81526020600482015260146024820152734c6561736520616c72656164792061637469766560601b604482015260640161035f565b60018101546001600160a01b03161580610de4575060018101546001600160a01b031633145b610e285760405162461bcd60e51b81526020600482015260156024820152744e6f7420617574686f72697a6564206c657373656560581b604482015260640161035f565b600061271060fa8360050154610e3e919061140f565b610e48919061142c565b90506000818360050154610e5c919061144e565b83546040516323b872dd60e01b81529192506001600160a01b037f00000000000000000000000000000000000000000000000000000000000000008116926323b872dd92610eb39233929116908690600401611385565b6020604051808303816000875af1158015610ed2573d6000803e3d6000fd5b505050506040513d601f19601f82011682018060405250810190610ef69190611461565b610f335760405162461bcd60e51b815260206004820152600e60248201526d14185e5b595b9d0819985a5b195960921b604482015260640161035f565b6040516323b872dd60e01b81526001600160a01b037f000000000000000000000000000000000000000000000000000000000000000016906323b872dd90610f8390339030908790600401611385565b6020604051808303816000875af1158015610fa2573d6000803e3d6000fd5b505050506040513d601f19601f82011682018060405250810190610fc69190611461565b6110075760405162461bcd60e51b8152602060048201526012602482015271119959481c185e5b595b9d0819985a5b195960721b604482015260640161035f565b60028301546003840154604051632142170760e11b81526001600160a01b03909216916342842e0e916110409130913391600401611385565b600060405180830381600087803b15801561105a57600080fd5b505af115801561106e573d6000803e3d6000fd5b505050600180850180546001600160a01b031916339081179091554260068701556008909501805460ff1916821790556000948552600460209081526040862080549283018155865290942090930184905550610bcb91506110f79050565b6002600054036110f057604051633ee5aeb560e01b815260040160405180910390fd5b6002600055565b6001600055565b80356001600160a01b038116811461111557600080fd5b919050565b60008060008060008060c0878903121561113357600080fd5b61113c876110fe565b95506020870135945060408701356004811061115757600080fd5b9350606087013592506080870135915061117360a088016110fe565b90509295509295509295565b60008060008060006080868803121561119757600080fd5b6111a0866110fe565b94506111ae602087016110fe565b935060408601359250606086013567ffffffffffffffff808211156111d257600080fd5b818801915088601f8301126111e657600080fd5b8135818111156111f557600080fd5b89602082850101111561120757600080fd5b9699959850939650602001949392505050565b60006020828403121561122c57600080fd5b611235826110fe565b9392505050565b6020808252825182820181905260009190848201906040850190845b8181101561127457835183529284019291840191600101611258565b50909695505050505050565b60008060006060848603121561129557600080fd5b505081359360208301359350604090920135919050565b6000602082840312156112be57600080fd5b5035919050565b634e487b7160e01b600052602160045260246000fd5b600481106112f957634e487b7160e01b600052602160045260246000fd5b9052565b6001600160a01b038a8116825289811660208301528816604082015260608101879052610120810161133260808301886112db565b8560a08301528460c08301528360e08301528215156101008301529a9950505050505050505050565b6000806040838503121561136e57600080fd5b611377836110fe565b946020939093013593505050565b6001600160a01b039384168152919092166020820152604081019190915260600190565b634e487b7160e01b600052601160045260246000fd5b6000600182016113d1576113d16113a9565b5060010190565b6001600160a01b03861681526020810185905260a081016113fc60408301866112db565b6060820193909352608001529392505050565b8082028115828204841417611426576114266113a9565b92915050565b60008261144957634e487b7160e01b600052601260045260246000fd5b500490565b81810381811115611426576114266113a9565b60006020828403121561147357600080fd5b8151801515811461123557600080fd5b80820180821115611426576114266113a956fea26469706673582212206518c6890a50fab1fb2a63a2917a5aa4b27d9479f398ece73b84eed06ea442bc64736f6c63430008180033",
  "linkReferences": {},
  "deployedLinkReferences": {}
}