{
  "_format": "hh-sol-artifact-1",
  "contractName": "RevenueDistributor",
  "sourceName": "contracts/RevenueDistributor.sol",
  "abi": [
    {
      "inputs": [
        {
          "internalType": "address",
          "name": "_revenueToken",
          "type": "address"
        }
      ],
      "stateMutability": "nonpayable",
      "type": "constructor"
    },
    {
      "inputs": [],
      "name": "ReentrancyGuardReentrantCall",
      "type": "error"
    },
    {
      "anonymous": false,
      "inputs": [
        {
          "indexed": true,
          "internalType": "uint256",
          "name": "streamId",
          "type": "uint256"
        },
        {
          "indexed": false,
          "internalType": "uint256",
          "name": "amount",
          "type": "uint256"
        }
      ],
      "name": "RevenueDeposited",
      "type": "event"
    },
    {
      "anonymous": false,
      "inputs": [
        {
          "indexed": true,
          "internalType": "uint256",
          "name": "streamId",
          "type": "uint256"
        },
        {
          "indexed": true,
          "internalType": "address",
          "name": "beneficiary",
          "type": "address"
        },
        {
          "indexed": false,
          "internalType": "uint256",
          "name": "amount",
          "type": "uint256"
        }
      ],
      "name": "RevenueWithdrawn",
      "type": "event"
    },
    {
      "anonymous": false,
      "inputs": [
        {
          "indexed": true,
          "internalType": "uint256",
          "name": "streamId",
          "type": "uint256"
        },
        {
          "indexed": true,
          "internalType": "address",
          "name": "domainNFT",
          "type": "address"
        },
        {
          "indexed": false,
          "internalType": "uint256",
          "name": "tokenId",
          "type": "uint256"
        },
        {
          "indexed": false,
          "internalType": "address[]",
          "name": "beneficiaries",
          "type": "address[]"
        },
        {
          "indexed": false,
          "internalType": "uint256[]",
          "name": "shares",
          "type": "uint256[]"
        }
      ],
      "name": "StreamCreated",
      "type": "event"
    },
    {
      "anonymous": false,
      "inputs": [
        {
          "indexed": true,
          "internalType": "uint256",
          "name": "streamId",
          "type": "uint256"
        }
      ],
      "name": "StreamDeactivated",
      "type": "event"
    },
    {
      "anonymous": false,
      "inputs": [
        {
          "indexed": true,
          "internalType": "uint256",
          "name": "streamId",
          "type": "uint256"
        },
        {
          "indexed": false,
          "internalType": "address[]",
          "name": "beneficiaries",
          "type": "address[]"
        },
        {
          "indexed": false,
          "internalType": "uint256[]",
          "name": "shares",
          "type": "uint256[]"
        }
      ],
      "name": "StreamUpdated",
      "type": "event"
    },
    {
      "inputs": [],
      "name": "BASIS_POINTS",
      "outputs": [
        {
          "internalType": "uint256",
          "name": "",
          "type": "uint256"
        }
      ],
      "stateMutability": "view",
      "type": "function"
    },
    {
      "inputs": [
        {
          "internalType": "uint256[]",
          "name": "streamIds",
          "type": "uint256[]"
        }
      ],
      "name": "batchWithdraw",
      "outputs": [],
      "stateMutability": "nonpayable",
      "type": "function"
    },
    {
      "inputs": [
        {
          "internalType": "address",
          "name": "",
          "type": "address"
        },
        {
          "internalType": "uint256",
          "name": "",
          "type": "uint256"
        }
      ],
      "name": "beneficiaryStreams",
      "outputs": [
        {
          "internalType": "uint256",
          "name": "",
          "type": "uint256"
        }
      ],
      "stateMutability": "view",
      "type": "function"
    },
    {
      "inputs": [
        {
          "internalType": "address",
          "name": "domainNFT",
          "type": "address"
        },
        {
          "internalType": "uint256",
          "name": "tokenId",
          "type": "uint256"
        },
        {
          "internalType": "address[]",
          "name": "beneficiaries",
          "type": "address[]"
        },
        {
          "internalType": "uint256[]",
          "name": "shares",
          "type": "uint256[]"
        }
      ],
      "name": "createStream",
      "outputs": [
        {
          "internalType": "uint256",
          "name": "",
          "type": "uint256"
        }
      ],
      "stateMutability": "nonpayable",
      "type": "function"
    },
    {
      "inputs": [
        {
          "internalType": "uint256",
          "name": "streamId",
          "type": "uint256"
        }
      ],
      "name": "deactivateStream",
      "outputs": [],
      "stateMutability": "nonpayable",
      "type": "function"
    },
    {
      "inputs": [
        {
          "internalType": "uint256",
          "name": "streamId",
          "type": "uint256"
        },
        {
          "internalType": "uint256",
          "name": "amount",
          "type": "uint256"
        }
      ],
      "name": "depositRevenue",
      "outputs": [],
      "stateMutability": "nonpayable",
      "type": "function"
    },
    {
      "inputs": [
        {
          "internalType": "address",
          "name": "beneficiary",
          "type": "address"
        }
      ],
      "name": "getBeneficiaryStreams",
      "outputs": [
        {
          "internalType": "uint256[]",
          "name": "",
          "type": "uint256[]"
        }
      ],
      "stateMutability": "view",
      "type": "function"
    },
    {
      "inputs": [
        {
          "internalType": "uint256",
          "name": "streamId",
          "type": "uint256"
        }
      ],
      "name": "getStream",
      "outputs": [
        {
          "internalType": "address",
          "name": "domainNFT",
          "type": "address"
        },
        {
          "internalType": "uint256",
          "name": "tokenId",
          "type": "uint256"
        },
        {
          "internalType": "address[]",
          "name": "beneficiaries",
          "type": "address[]"
        },
        {
          "internalType": "uint256[]",
          "name": "shares",
          "type": "uint256[]"
        },
        {
          "internalType": "uint256",
          "name": "totalCollected",
          "type": "uint256"
        },
        {
          "internalType": "uint256",
          "name": "totalDistributed",
          "type": "uint256"
        },
        {
          "internalType": "bool",
          "name": "active",
          "type": "bool"
        }
      ],
      "stateMutability": "view",
      "type": "function"
    },
    {
      "inputs": [
        {
          "internalType": "uint256",
          "name": "streamId",
          "type": "uint256"
        },
        {
          "internalType": "address",
          "name": "beneficiary",
          "type": "address"
        }
      ],
      "name": "getWithdrawableAmount",
      "outputs": [
        {
          "internalType": "uint256",
          "name": "",
          "type": "uint256"
        }
      ],
      "stateMutability": "view",
      "type": "function"
    },
    {
      "inputs": [],
      "name": "revenueToken",
      "outputs": [
        {
          "internalType": "contract IERC20",
          "name": "",
          "type": "address"
        }
      ],
      "stateMutability": "view",
      "type": "function"
    },
    {
      "inputs": [],
      "name": "streamCounter",
      "outputs": [
        {
          "internalType": "uint256",
          "name": "",
          "type": "uint256"
        }
      ],
      "stateMutability": "view",
      "type": "function"
    },
    {
      "inputs": [
        {
          "internalType": "uint256",
          "name": "",
          "type": "uint256"
        }
      ],
      "name": "streams",
      "outputs": [
        {
          "internalType": "address",
          "name": "domainNFT",
          "type": "address"
        },
        {
          "internalType": "uint256",
          "name": "tokenId",
          "type": "uint256"
        },
        {
          "internalType": "uint256",
          "name": "totalCollected",
          "type": "uint256"
        },
        {
          "internalType": "uint256",
          "name": "totalDistributed",
          "type": "uint256"
        },
        {
          "internalType": "bool",
          "name": "active",
          "type": "bool"
        }
      ],
      "stateMutability": "view",
      "type": "function"
    },
    {
      "inputs": [
        {
          "internalType": "uint256",
          "name": "streamId",
          "type": "uint256"
        },
        {
          "internalType": "address[]",
          "name": "newBeneficiaries",
          "type": "address[]"
        },
        {
          "internalType": "uint256[]",
          "name": "newShares",
          "type": "uint256[]"
        }
      ],
      "name": "updateStream",
      "outputs": [],
      "stateMutability": "nonpayable",
      "type": "function"
    },
    {
      "inputs": [
        {
          "internalType": "uint256",
          "name": "streamId",
          "type": "uint256"
        }
      ],
      "name": "withdrawRevenue",
      "outputs": [],
      "stateMutability": "nonpayable",
      "type": "function"
    },
    {
      "inputs": [
        {
          "internalType": "uint256",
          "name": "",
          "type": "uint256"
        },
        {
          "internalType": "address",
          "name": "",
          "type": "address"
        }
      ],
      "name": "withdrawableAmount",
      "outputs": [
        {
          "internalType": "uint256",
          "name": "",
          "type": "uint256"
        }
      ],
      "stateMutability": "view",
      "type": "function"
    }
  ],
  "bytecode": "0x60a060405234801561001057600080fd5b50604051611b19380380611b1983398101604081905261002f91610045565b60016000556001600160a01b0316608052610075565b60006020828403121561005757600080fd5b81516001600160a01b038116811461006e57600080fd5b9392505050565b608051611a746100a560003960008181610193015281816103bc0152818161062b0152610d390152611a746000f3fe608060405234801561001057600080fd5b50600436106100f55760003560e01c80635746c21e116100975780637831a74f116100665780637831a74f1461027a578063894e9a0d146102a5578063e1f1c4a7146102cb578063ecfeb6ec146102d457600080fd5b80635746c21e146101cd5780635a452052146101d657806364d60d91146101e957806372e553991461026757600080fd5b8063359cd45e116100d3578063359cd45e146101355780633d57a99e1461015b5780633e3e8b8a1461017b578063556e4e681461018e57600080fd5b80630cae7afc146100fa5780630ceff2041461010f57806329c7aa4214610122575b600080fd5b61010d610108366004611504565b6102e7565b005b61010d61011d366004611526565b610569565b61010d610130366004611526565b610701565b610148610143366004611554565b610836565b6040519081526020015b60405180910390f35b61016e610169366004611584565b610860565b60405161015291906115e4565b61010d610189366004611643565b6108cc565b6101b57f000000000000000000000000000000000000000000000000000000000000000081565b6040516001600160a01b039091168152602001610152565b61014860015481565b6101486101e43660046116bd565b610bb3565b6102336101f7366004611526565b600260205260009081526040902080546001820154600483015460058401546006909401546001600160a01b0390931693919290919060ff1685565b604080516001600160a01b03909616865260208601949094529284019190915260608301521515608082015260a001610152565b61010d6102753660046116e9565b610be4565b610148610288366004611554565b600460209081526000928352604080842090915290825290205481565b6102b86102b3366004611526565b610dd5565b604051610152979695949392919061172b565b61014861271081565b6101486102e23660046117c0565b610f29565b6102ef611397565b6000828152600260205260409020600681015460ff1661034a5760405162461bcd60e51b815260206004820152601160248201527053747265616d206e6f742061637469766560781b60448201526064015b60405180910390fd5b6000821161039a5760405162461bcd60e51b815260206004820152601760248201527f416d6f756e74206d75737420626520706f7369746976650000000000000000006044820152606401610341565b6040516323b872dd60e01b8152336004820152306024820152604481018390527f00000000000000000000000000000000000000000000000000000000000000006001600160a01b0316906323b872dd906064016020604051808303816000875af115801561040d573d6000803e3d6000fd5b505050506040513d601f19601f82011682018060405250810190610431919061184c565b61044d5760405162461bcd60e51b81526004016103419061186e565b8181600401600082825461046191906118ad565b90915550600090505b600282015481101561051f576000612710836003018381548110610490576104906118c0565b9060005260206000200154856104a691906118d6565b6104b091906118ed565b9050806004600087815260200190815260200160002060008560020185815481106104dd576104dd6118c0565b60009182526020808320909101546001600160a01b03168352820192909252604001812080549091906105119084906118ad565b90915550505060010161046a565b50827fb20d89f6552ecc9b6927807870a2e0a3ead94efac32d88ca11d3ff17b744aa908360405161055291815260200190565b60405180910390a2506105656001600055565b5050565b610571611397565b6000818152600460209081526040808320338452909152902054806105d15760405162461bcd60e51b81526020600482015260166024820152754e6f20726576656e756520746f20776974686472617760501b6044820152606401610341565b6000828152600460209081526040808320338452825280832083905584835260029091528120600501805483929061060a9084906118ad565b909155505060405163a9059cbb60e01b8152336004820152602481018290527f00000000000000000000000000000000000000000000000000000000000000006001600160a01b03169063a9059cbb906044016020604051808303816000875af115801561067c573d6000803e3d6000fd5b505050506040513d601f19601f820116820180604052508101906106a0919061184c565b6106bc5760405162461bcd60e51b81526004016103419061186e565b604051818152339083907f841fbab03327efe47fb7d133055c9aa87df38ff76b5919d1c190e0067c5e34b39060200160405180910390a3506106fe6001600055565b50565b6000818152600260205260409020600681015460ff166107635760405162461bcd60e51b815260206004820152601760248201527f53747265616d20616c726561647920696e6163746976650000000000000000006044820152606401610341565b805460018201546040516331a9108f60e11b8152600481019190915233916001600160a01b031690636352211e90602401602060405180830381865afa1580156107b1573d6000803e3d6000fd5b505050506040513d601f19601f820116820180604052508101906107d5919061190f565b6001600160a01b0316146107fb5760405162461bcd60e51b81526004016103419061192c565b60068101805460ff1916905560405182907f6dcd00148a3e1fea922ca8f820075d1bf784dc029042b144a79fa13f65eade0b90600090a25050565b60008281526004602090815260408083206001600160a01b03851684529091529020545b92915050565b6001600160a01b0381166000908152600360209081526040918290208054835181840281018401909452808452606093928301828280156108c057602002820191906000526020600020905b8154815260200190600101908083116108ac575b50505050509050919050565b6000858152600260205260409020600681015460ff166109225760405162461bcd60e51b815260206004820152601160248201527053747265616d206e6f742061637469766560781b6044820152606401610341565b805460018201546040516331a9108f60e11b8152600481019190915233916001600160a01b031690636352211e90602401602060405180830381865afa158015610970573d6000803e3d6000fd5b505050506040513d601f19601f82011682018060405250810190610994919061190f565b6001600160a01b0316146109ba5760405162461bcd60e51b81526004016103419061192c565b8382146109fb5760405162461bcd60e51b815260206004820152600f60248201526e098cadccee8d040dad2e6dac2e8c6d608b1b6044820152606401610341565b6000805b83811015610b02576000878783818110610a1b57610a1b6118c0565b9050602002016020810190610a309190611584565b6001600160a01b031603610a7c5760405162461bcd60e51b8152602060048201526013602482015272496e76616c69642062656e656669636961727960681b6044820152606401610341565b6000858583818110610a9057610a906118c0565b9050602002013511610ad45760405162461bcd60e51b815260206004820152600d60248201526c496e76616c696420736861726560981b6044820152606401610341565b848482818110610ae657610ae66118c0565b9050602002013582610af891906118ad565b91506001016109ff565b506127108114610b4e5760405162461bcd60e51b8152602060048201526017602482015276536861726573206d7573742073756d20746f203130302560481b6044820152606401610341565b610b5c6002830187876113c1565b50610b6b600383018585611424565b50867f20df84ab4a0e922af3c2c80582faea510a376971457aeb798f6798eb40e76f4087878787604051610ba294939291906119c6565b60405180910390a250505050505050565b60036020528160005260406000208181548110610bcf57600080fd5b90600052602060002001600091509150505481565b610bec611397565b6000805b82811015610cd3576000848483818110610c0c57610c0c6118c0565b6020908102929092013560008181526004845260408082203383529094529290922054919250508015610cc95760008281526004602090815260408083203384528252808320839055848352600290915281206005018054839290610c729084906118ad565b90915550610c82905081856118ad565b9350336001600160a01b0316827f841fbab03327efe47fb7d133055c9aa87df38ff76b5919d1c190e0067c5e34b383604051610cc091815260200190565b60405180910390a35b5050600101610bf0565b5060008111610d1d5760405162461bcd60e51b81526020600482015260166024820152754e6f20726576656e756520746f20776974686472617760501b6044820152606401610341565b60405163a9059cbb60e01b8152336004820152602481018290527f00000000000000000000000000000000000000000000000000000000000000006001600160a01b03169063a9059cbb906044016020604051808303816000875af1158015610d8a573d6000803e3d6000fd5b505050506040513d601f19601f82011682018060405250810190610dae919061184c565b610dca5760405162461bcd60e51b81526004016103419061186e565b506105656001600055565b6000818152600260208181526040808420815160e08101835281546001600160a01b0316815260018201548185015293810180548351818602810186018552818152879660609687968996879687968796929493860193830182828015610e6557602002820191906000526020600020905b81546001600160a01b03168152600190910190602001808311610e47575b5050505050815260200160038201805480602002602001604051908101604052809291908181526020018280548015610ebd57602002820191906000526020600020905b815481526020019060010190808311610ea9575b50505091835250506004820154602080830191909152600583015460408084019190915260069093015460ff1615156060928301528351908401519284015191840151608085015160a086015160c090960151929f949e50929c509a5090985091965090945092505050565b600083610f6b5760405162461bcd60e51b815260206004820152601060248201526f4e6f2062656e6566696369617269657360801b6044820152606401610341565b838214610fac5760405162461bcd60e51b815260206004820152600f60248201526e098cadccee8d040dad2e6dac2e8c6d608b1b6044820152606401610341565b6040516331a9108f60e11b81526004810187905233906001600160a01b03891690636352211e90602401602060405180830381865afa158015610ff3573d6000803e3d6000fd5b505050506040513d601f19601f82011682018060405250810190611017919061190f565b6001600160a01b03161461103d5760405162461bcd60e51b81526004016103419061192c565b6000805b838110156111a057600087878381811061105d5761105d6118c0565b90506020020160208101906110729190611584565b6001600160a01b0316036110be5760405162461bcd60e51b8152602060048201526013602482015272496e76616c69642062656e656669636961727960681b6044820152606401610341565b60008585838181106110d2576110d26118c0565b90506020020135116111165760405162461bcd60e51b815260206004820152600d60248201526c496e76616c696420736861726560981b6044820152606401610341565b848482818110611128576111286118c0565b905060200201358261113a91906118ad565b915060036000888884818110611152576111526118c0565b90506020020160208101906111679190611584565b6001600160a01b031681526020808201929092526040016000908120600180548254808301845592845293909220019190915501611041565b5061271081146111ec5760405162461bcd60e51b8152602060048201526017602482015276536861726573206d7573742073756d20746f203130302560481b6044820152606401610341565b60018054600091826111fd836119f8565b9190505590506040518060e001604052808a6001600160a01b03168152602001898152602001888880806020026020016040519081016040528093929190818152602001838360200280828437600092019190915250505090825250604080516020888102828101820190935288825292830192909189918991829185019084908082843760009201829052509385525050506020808301829052604080840183905260016060909401849052858352600280835292819020855181546001600160a01b0319166001600160a01b03909116178155858301519481019490945584015180516112f393850192919091019061145f565b506060820151805161130f9160038401916020909101906114b4565b506080820151600482015560a0820151600582015560c0909101516006909101805460ff19169115159190911790556040516001600160a01b038a169082907feb11d7a738afaf5f904ec9c93ba53a114c3b2c32c3a6a41ba40b9d49b849df8590611383908c908c908c908c908c90611a11565b60405180910390a398975050505050505050565b6002600054036113ba57604051633ee5aeb560e01b815260040160405180910390fd5b6002600055565b828054828255906000526020600020908101928215611414579160200282015b828111156114145781546001600160a01b0319166001600160a01b038435161782556020909201916001909101906113e1565b506114209291506114ef565b5090565b828054828255906000526020600020908101928215611414579160200282015b82811115611414578235825591602001919060010190611444565b828054828255906000526020600020908101928215611414579160200282015b8281111561141457825182546001600160a01b0319166001600160a01b0390911617825560209092019160019091019061147f565b828054828255906000526020600020908101928215611414579160200282015b828111156114145782518255916020019190600101906114d4565b5b8082111561142057600081556001016114f0565b6000806040838503121561151757600080fd5b50508035926020909101359150565b60006020828403121561153857600080fd5b5035919050565b6001600160a01b03811681146106fe57600080fd5b6000806040838503121561156757600080fd5b8235915060208301356115798161153f565b809150509250929050565b60006020828403121561159657600080fd5b81356115a18161153f565b9392505050565b60008151808452602080850194506020840160005b838110156115d9578151875295820195908201906001016115bd565b509495945050505050565b6020815260006115a160208301846115a8565b60008083601f84011261160957600080fd5b50813567ffffffffffffffff81111561162157600080fd5b6020830191508360208260051b850101111561163c57600080fd5b9250929050565b60008060008060006060868803121561165b57600080fd5b85359450602086013567ffffffffffffffff8082111561167a57600080fd5b61168689838a016115f7565b9096509450604088013591508082111561169f57600080fd5b506116ac888289016115f7565b969995985093965092949392505050565b600080604083850312156116d057600080fd5b82356116db8161153f565b946020939093013593505050565b600080602083850312156116fc57600080fd5b823567ffffffffffffffff81111561171357600080fd5b61171f858286016115f7565b90969095509350505050565b6001600160a01b038881168252602080830189905260e0604084018190528851908401819052600092898301929091610100860190855b81811015611780578551851683529483019491830191600101611762565b50508581036060870152611794818b6115a8565b9450505050508460808301528360a08301526117b460c083018415159052565b98975050505050505050565b600080600080600080608087890312156117d957600080fd5b86356117e48161153f565b955060208701359450604087013567ffffffffffffffff8082111561180857600080fd5b6118148a838b016115f7565b9096509450606089013591508082111561182d57600080fd5b5061183a89828a016115f7565b979a9699509497509295939492505050565b60006020828403121561185e57600080fd5b815180151581146115a157600080fd5b6020808252600f908201526e151c985b9cd9995c8819985a5b1959608a1b604082015260600190565b634e487b7160e01b600052601160045260246000fd5b8082018082111561085a5761085a611897565b634e487b7160e01b600052603260045260246000fd5b808202811582820484141761085a5761085a611897565b60008261190a57634e487b7160e01b600052601260045260246000fd5b500490565b60006020828403121561192157600080fd5b81516115a18161153f565b60208082526010908201526f2737ba103237b6b0b4b71037bbb732b960811b604082015260600190565b8183526000602080850194508260005b858110156115d95781356119798161153f565b6001600160a01b031687529582019590820190600101611966565b81835260006001600160fb1b038311156119ad57600080fd5b8260051b80836020870137939093016020019392505050565b6040815260006119da604083018688611956565b82810360208401526119ed818587611994565b979650505050505050565b600060018201611a0a57611a0a611897565b5060010190565b858152606060208201526000611a2b606083018688611956565b82810360408401526117b481858761199456fea2646970667358221220fd720acc14db42577baa86c70f0e6a7e39c565ef0a37301d171d05debb8772ab64736f6c63430008180033",
  "linkReferences": {},
  "deployedLinkReferences": {}
}